:04000000B1EF04F068
:100800000000BAEC04F0000E956E2F0E926E000EF2
:100810008C6E000E896E4BEC04F00350015C0450AA
:100820000258D8B016EF04F018EF04F01BEF04F0F4
:100830008C801CEF04F08C900550015C065002582F
:10084000D8B025EF04F027EF04F02AEF04F08C82F3
:100850002BEF04F08C920750015C08500258D8B07E
:1008600034EF04F036EF04F039EF04F08C843AEF03
:1008700004F08C940B50015C0C500258D8B043EF3C
:1008800004F045EF04F048EF04F08C8849EF04F0E1
:100890008C9800EF00F0C30EC216100EE82EFED7A3
:1008A00000D0000E95EC04F00DC001F00EC002F077
:1008B000C250C30B0409C26E100EE82EFED700D042
:1008C000010E95EC04F00DC003F00EC004F0C25010
:1008D000C30B0809C26E100EE82EFED700D0020E20
:1008E00095EC04F00DC005F00EC006F0C250C30B2D
:1008F0000C09C26E100EE82EFED700D0030E95EC48
:1009000004F00DC007F00EC008F0C250C30B14096C
:10091000C26E100EE82EFED700D0050E95EC04F046
:100920000DC00BF00EC00CF012000F6E0D0E0F6418
:100930009CEF04F09EEF04F0A4EF04F0000E0E6EA6
:10094000000E0D6EB0EF04F0C282C2B2AAEF04F046
:10095000ACEF04F0A5EF04F0C3CF0DF0C4CF0EF060
:10096000120000EE01F00C0EEE6AE806FDE1000157
:1009700001EF04F0000EC26E0A0EC16E970EC06E3B
:04098000C28012001F
:020000040020DA
:08000000FFFFFFFFFFFFFFFF00
:020000040030CA
:0E000000000C1F1EFF8385FF0FC00FE00F4096
:00000001FF
