:04000000E3EF09F031
:10080000004144432043616E616C20303A202575DD
:10081000202020004144432043616E616C20313A26
:10082000202575202020004144432043616E616CE7
:0B08300020323A202575202020000017
:10083C00000165BF24EF04F026EF04F027EF04F06D
:10084C005E9265BF34EF04F0655106E16405D8B0E3
:10085C0032EF04F034EF04F03AEF04F0000E2F6E98
:10086C00010E2E6E3EEF04F064C02EF065C02FF02A
:10087C0062C030F063C031F01EC032F01FC033F0E4
:10088C0020C034F021C035F022C036F023C037F040
:10089C0024C038F025C039F0000E3B6E1F0E3A6EA6
:1008AC00000E856FD0EF04F03A06D8A03B06660E1A
:1008BC003A24D96E000E3B20DA6E32C001F033C000
:1008CC0002F034C003F035C004F036C005F037C078
:1008DC0006F038C007F039C008F00A0E096E000E99
:1008EC000A6E000E0B6E000E0C6E000E0D6E000EDE
:1008FC000E6E000E0F6E000E106E3DEC07F001C078
:10090C0026F002C027F003C028F004C029F005C06F
:10091C002AF006C02BF007C02CF008C02DF0265092
:10092C00300FDF6E2E06D8A02F063006D8A0310669
:10093C0032C001F033C002F034C003F035C004F013
:10094C0036C005F037C006F038C007F039C008F0E3
:10095C000A0E096E000E0A6E000E0B6E000E0C6E67
:10096C00000E0D6E000E0E6E000E0F6E000E106E51
:10097C00E7EC05F001C032F002C033F003C034F0F4
:10098C0004C035F005C036F006C037F007C038F0AB
:10099C0008C039F03A503B10D8B4D7EF04F0D9EF77
:1009AC0004F009EF05F032503310341035103610C6
:1009BC00371038103910D8A4E6EF04F0E8EF04F043
:1009CC005AEF04F02FBEF5EF04F02F5006E12E0481
:1009DC00D8B0F3EF04F0F5EF04F05AEF04F031BEA9
:1009EC0000EF05F0315008E13004D8A000EF05F01D
:1009FC0002EF05F009EF05F05EB207EF05F009EF25
:100A0C0005F05AEF04F01CC011F01DC012F0660E78
:100A1C003A24136E000E3B20146E30C015F031C01A
:100A2C0016F00AEC08F011C01CF012C01DF01200F8
:100A3C003EC0D9FF3FC0DAFFDECFF6FFDDCFF7FFB8
:100A4C000800F550250AD8A42EEF05F030EF05F07C
:100A5C00CBEF05F03EC0D9FF3FC0DAFFDE2A000E17
:100A6C00DD22000E0001636F000E626F62C05EF04B
:100A7C0063C05FF0646965693EC0D9FF3FC0DAFFAF
:100A8C00DECFF6FFDDCFF7FF0800F550750AD8A4CE
:100A9C0052EF05F054EF05F095EF05F03EC0D9FF8D
:100AAC003FC0DAFFDE2A000EDD2240C0D9FF41C074
:100ABC00DAFFDFCF42F0020EDE26DFCF43F0000E6E
:100ACC00DD2242C0D9FF43C0DAFFDECF44F0DDCFD8
:100ADC0045F044C046F045C047F0486A496A4A6A46
:100AEC004B6A4C6A4D6A3CC01CF03DC01DF046C0C0
:100AFC001EF047C01FF048C020F049C021F04AC08A
:100B0C0022F04BC023F04CC024F04DC025F01EEC5D
:100B1C0004F01CC03CF01DC03DF0E6EF05F03EC0FB
:100B2C00D9FF3FC0DAFFDECFF6FFDDCFF7FF0800BD
:100B3C00F550250AD8A4A5EF05F0A7EF05F0BEEFF8
:100B4C0005F03EC0D9FF3FC0DAFFDE2A000EDD22E1
:100B5C00000E026E250E016E3CC003F03DC004F089
:100B6C00A5EC07F0000E3D6E010E3C6EE6EF05F0B5
:100B7C003EC0D9FF3FC0DAFFDE2A000EDD22000E98
:100B8C003D6E000E3C6EE6EF05F03EC0D9FF3FC057
:100B9C00DAFFDECFF6FFDDCFF7FF0800F550016E70
:100BAC00026A3CC003F03DC004F0A5EC07F03EC067
:100BBC00D9FF3FC0DAFFDE2A000EDD22B8EF05F0C8
:100BCC00120020EE11F0070EDE6AE806FDE2095075
:100BDC000A100B100C100D100E100F101010D8B4B2
:100BEC00FAEF05F0FCEF05F04EEF06F0010E196E72
:100BFC000AEF06F0D89009360A360B360C360D364D
:100C0C000E360F361036192A10AE0FEF06F011EF14
:100C1C0006F000EF06F0D890113612361336143663
:100C2C0015361636173618360950015C0A5002581C
:100C3C000B5003580C5004580D5005580E500658C4
:100C4C000F50075810500858D8A02FEF06F031EF6E
:100C5C0006F042EF06F00950015E0A50025A0B50A2
:100C6C00035A0C50045A0D50055A0E50065A0F5088
:100C7C00075A1050085A1180D89010320F320E3289
:100C8C000D320C320B320A320932192E11EF06F0EA
:100C9C0011C001F012C002F013C003F014C004F034
:100CAC0015C005F016C006F017C007F018C008F004
:100CBC0012000C0EF2EC09F06BEC08F0000E39ECA3
:100CCC0009F001C0A2F002C0A3F0010E39EC09F04A
:100CDC0001C0A4F002C0A5F0020E39EC09F001C06D
:100CEC00A6F002C0A7F0010E046E010ED4EC06F0C3
:100CFC00860E566E000E576E010E586E080E596E0B
:100D0C00A2C05AF0A3C05BF010EC09F0860E056E81
:100D1C00000E066E7EEC09F0010E046E020ED4EC91
:100D2C0006F0860E566E000E576E140E586E080E98
:100D3C00596EA4C05AF0A5C05BF010EC09F0860EF9
:100D4C00056E000E066E7EEC09F0010E046E030EAD
:100D5C00D4EC06F0860E566E000E576E270E586EAB
:100D6C00080E596EA6C05AF0A7C05BF010EC09F043
:100D7C00860E056E000E066E7EEC09F00A0E5D6E98
:100D8C00220E5C6EA10EE82EFED75C2EFCD75D2EDB
:100D9C00FAD700F064EF06F000EF00F0056E0504E2
:100DAC00D8A4DBEF06F0DDEF06F0EEEF06F0045012
:100DBC007F0F086E08380F0B066E08500F0B076E6E
:100DCC000650D3EC09F00750D3EC09F03CEF07F0D8
:100DDC00020E0518D8A4F5EF06F0F7EF06F008EFB1
:100DEC0007F00450BF0F086E08380F0B066E085042
:100DFC000F0B076E0650D3EC09F00750D3EC09F03B
:100E0C003CEF07F0030E0518D8A40FEF07F011EF15
:100E1C0007F022EF07F00450930F086E08380F0B01
:100E2C00066E08500F0B076E0650D3EC09F00750F6
:100E3C00D3EC09F03CEF07F0040E0518D8A429EF09
:100E4C0007F02BEF07F03CEF07F00450D30F086EC0
:100E5C0008380F0B066E08500F0B076E0650D3ECBC
:100E6C0009F00750D3EC09F03CEF07F012000950E1
:100E7C000A100B100C100D100E100F101010D8B40F
:100E8C004AEF07F04CEF07F094EF07F0010E116EEC
:100E9C005AEF07F0D89009360A360B360C360D3659
:100EAC000E360F361036112A10AE5FEF07F061EFD9
:100EBC0007F050EF07F00950015C0A5002580B5034
:100ECC0003580C5004580D5005580E5006580F502E
:100EDC00075810500858D8A076EF07F078EF07F0B5
:100EEC0088EF07F00950015E0A50025A0B50035A62
:100EFC000C50045A0D50055A0E50065A0F50075AF2
:100F0C001050085AD89010320F320E320D320C326B
:100F1C000B320A320932112E61EF07F001C001F0D9
:100F2C0002C002F003C003F004C004F005C005F0D9
:100F3C0006C006F007C007F008C008F01200035006
:100F4C000410D8B4ACEF07F0AEEF07F0B7EF07F032
:100F5C0003500410D8A4B5EF07F0B7EF07F0BCEFBF
:100F6C0007F0015001EC0AF009EF08F020EE04F054
:100F7C000350D9260450DA22DE50DE10D8B4C9EF63
:100F8C0007F0CBEF07F0E6EF07F020EE04F003508C
:100F9C00D9260450DA2210EE02F00350E126045058
:100FAC00E222DE50E65CE650800A096EDE50800AD2
:100FBC000958D8B0E4EF07F0E6EF07F009EF08F0B6
:100FCC0020EE02F00350D9260450DA22DECF05F0D1
:100FDC00DDCF06F003C0D9FF04C0DAFFDECF07F087
:100FEC00DDCF08F005500724D96E06500820DA6EC4
:100FFC0001C0DFFF20EE02F00350D9260450DA22A4
:10100C00DE2A000EDD2212005EA00FEF08F011EFB9
:10101C0008F01BEF08F013C00AF014C00BF011C05D
:10102C000CF012C00DF05CEC09F016BE20EF08F0CD
:10103C0022EF08F028EF08F015C01AF016C01BF0CC
:10104C002CEF08F0000E1B6E000E1A6E000E196EBF
:10105C00000E186E3EEF08F0000E026E200E016EB0
:10106C0011C003F012C004F0A5EC07F0184A192ABD
:10107C001A50185C1950800A176E1B50800A1758AA
:10108C00D8A04BEF08F04DEF08F032EF08F05EB04F
:10109C0052EF08F054EF08F05EEF08F013C00AF0BE
:1010AC0014C00BF011C00CF012C00DF05CEC09F088
:1010BC0013C001F014C002F09EEC09F01A50012488
:1010CC00116E1B500220126E1200959495969598F5
:1010DC00959A959C959E000EE2EC08F0020E056E1A
:1010EC00380E046EAD0EE82EFED7042EFCD7052E5E
:1010FC00FAD700F0030ED3EC09F04E0E046EEB0E93
:10110C00E82EFED7042EFCD700F0030ED3EC09F02A
:10111C00AC0E046E6C0EE82EFED7042EFCD700D05D
:10112C00030ED3EC09F0020ED3EC09F0020ED3EC53
:10113C0009F0080ED3EC09F0000ED3EC09F00C0EFC
:10114C00D3EC09F0000ED3EC09F0060ED3EC09F049
:10115C00FAEC09F0120050C054F051C055F0000EDA
:10116C000001616F000E606FCFEF08F04EC03CF0D5
:10117C004FC03DF0540E3E6E000E3F6E52C040F01C
:10118C0053C041F01EEC05F03C50000160273D506F
:10119C00612354C0F6FF55C0F7FF0800F550000955
:1011AC00D8A4DBEF08F0DDEF08F0BCEF08F060C06E
:1011BC004EF061C04FF01200016E01A0E8EF08F094
:1011CC00EAEF08F0EDEF08F08C88EEEF08F08C9861
:1011DC0001A2F3EF08F0F5EF08F0F8EF08F08C8AB5
:1011EC00F9EF08F08C9A01A4FEEF08F000EF09F07B
:1011FC0003EF09F08C8C04EF09F08C9C01A609EF2D
:10120C0009F00BEF09F00EEF09F08C8E0FEF09F0DF
:10121C008C9E12005A0E00019A6F000E9B6F56C0E6
:10122C009CF057C09DF0000E9F6F000E9E6F000E3D
:10123C00A16F000EA06F9C0E4E6E000E4F6E58C02C
:10124C0050F059C051F09A0E526E000E536EB1EC24
:10125C0008F000019E515624D96E9F515720DA6E2A
:10126C00000EDF6E1200036E0D0E036440EF09F0EA
:10127C0042EF09F048EF09F0000E026E000E016E0D
:10128C005BEF09F0000EC26E0344E846FC0BC26E25
:10129C00C280C282C2B255EF09F057EF09F050EF8D
:1012AC0009F0C3CF01F0C4CF02F01200000E106E93
:1012BC00000E0F6E6DEF09F00EC001F0026A0CC04B
:1012CC0003F00DC004F0A5EC07F00F4A102A0F50E4
:1012DC000A24D96E10500B20DA6EDF500E6E0E50B1
:1012EC00D8A47BEF09F07DEF09F062EF09F0120052
:1012FC00000E086E000E076E8FEF09F007500524E4
:10130C00D96E08500620DA6EDF50B9EC09F0074AA6
:10131C00082A07500524D96E08500620DA6EDF50D3
:10132C00D8A49BEF09F09DEF09F084EF09F01200AF
:10133C0001C003F002C004F0A6EF09F0014A022A32
:10134C0001C0D9FF02C0DAFFDF50D8A4B0EF09F01A
:10135C00B2EF09F0A4EF09F00350015C016E0450E8
:10136C000258026E1200046E04500F0B026E0450F1
:10137C00F00B036E8C8403380F0BE2EC08F08C86B8
:10138C00A00EE82EFED78C960250E2EC08F08C866C
:10139C00A00EE82EFED78C961200036E8C94035090
:1013AC00E2EC08F08C863F0E026E550EE82EFED74E
:1013BC00022EFCD700F08C96120000EE60F03A0E74
:1013CC00EE6AE806FDE15F6A5E6A000EF86E080ED2
:1013DC00F76E00015FEF06F0016E01C0C1FF000E59
:1013EC00C26E8F0EC06E1200000ED3EC09F0010E0F
:0813FC00D3EC09F0120012000D
:020000040020DA
:08000000FFFFFFFFFFFFFFFF00
:020000040030CA
:0E000000210E191EFF8181FF0FC00FE00F407F
:00000001FF
