:0400000007EF00F016
:0A0008005F8240ED14F0A7EF13F043
:0B080000000000004B2566000A00000D
:10080C004EEC14F063EC14F000EC14F021EE66F0F6
:10081C0011EE00F01B0EDBCFE3FFE806FCE2000E4E
:10082C00956E8C908C8259EC14F06AEC14F0800E5E
:10083C000001836F1A0E846F060E856F000E866F93
:10084C0068EC0BF083C044F184C045F10A0E010141
:10085C004A6FD70E4B6FA30E4C6F3C0E4D6F330E81
:10086C00206F330E216F330E226F3F0E236F820EDB
:10087C005A6FA80E5B6F7B0E5C6F380E5D6F000EAF
:10088C00526F000E536F000E546F000E556F000E1A
:10089C00466F000E476F000E486F000E496F8E0EAC
:1008AC00626F2B0E636FE40E646F360E656FF2A4ED
:1008BC0062EF04F064EF04F0A2EF04F0010E046E9A
:1008CC00760E036E84C101F085C102F0D6EC12F0F5
:1008DC0001C00BF002C00CF0000E0CBEFF0E0D6E32
:1008EC000E6E010E78EC10F00BC028F10CC029F143
:1008FC000DC02AF10EC02BF128C142F029C143F0E2
:10090C002AC144F02BC145F062C146F063C147F0E7
:10091C0064C148F065C149F03AEC0DF042C02CF1CD
:10092C0043C02DF144C02EF145C02FF1000E010142
:10093C00856F000E846FF294000E2D6E000E2E6EDD
:10094C00AA0E2F6E430E306E020E38EC13F001C05F
:10095C000BF002C00CF0000E0CBEFF0E0D6E0E6EF6
:10096C00010E78EC10F00BC029F00CC02AF00DC071
:10097C002BF00EC02CF053EC09F029C042F02AC029
:10098C0043F02BC044F02CC045F0000E466EC00E58
:10099C00476E7F0E486E440E496E3AEC0DF042C025
:1009AC0056F143C057F144C058F145C059F156C1F6
:1009BC0001F057C102F058C103F059C104F052ECD8
:1009CC0011F056C160F057C161F058C162F059C1C5
:1009DC0063F02CC164F02DC165F02EC166F02FC1FF
:1009EC0067F083EC13F060C04EF161C04FF162C050
:1009FC0050F163C051F14AC164F04BC165F04CC178
:100A0C0066F04DC167F062C12DF063C12EF064C178
:100A1C002FF065C130F020C129F021C12AF022C18C
:100A2C002BF023C12CF053EC09F029C060F02AC044
:100A3C0061F02BC062F02CC063F083EC13F060C04B
:100A4C0030F161C031F162C032F163C033F162C187
:100A5C0046F063C147F064C148F065C149F0000E2F
:100A6C002D6E000E2E6E000E2F6E400E306E5AC183
:100A7C0029F05BC12AF05CC12BF05DC12CF053EC6A
:100A8C0009F029C042F02AC043F02BC044F02CC01E
:100A9C0045F03AEC0DF042C064F043C065F044C040
:100AAC0066F045C067F030C160F031C161F032C111
:100ABC0062F033C163F083EC13F060C034F161C0B9
:100ACC0035F162C036F163C037F14EC12DF04FC124
:100ADC002EF050C12FF051C130F04AC11DF04BC166
:100AEC001EF04CC11FF04DC120F062C146F063C135
:100AFC0047F064C148F065C149F05AC142F05BC18E
:100B0C0043F05CC144F05DC145F03AEC0DF042C0DD
:100B1C0019F043C01AF044C01BF045C01CF0F3ECB4
:100B2C0006F019C029F01AC02AF01BC02BF01CC00B
:100B3C002CF053EC09F029C038F12AC039F12BC044
:100B4C003AF12CC03BF124C11DF025C11EF026C189
:100B5C001FF027C120F038C119F039C11AF03AC181
:100B6C001BF03BC11CF0F3EC06F019C03CF11AC0B1
:100B7C003DF11BC03EF11CC03FF152C12DF053C1E1
:100B8C002EF054C12FF055C130F034C129F035C1CD
:100B9C002AF036C12BF037C12CF053EC09F029C0E8
:100BAC001DF02AC01EF02BC01FF02CC020F03CC141
:100BBC0019F03DC11AF03EC11BF03FC11CF0F3EC23
:100BCC0006F019C040F11AC041F11BC042F11CC023
:100BDC0043F140C119F041C11AF042C11BF043C1AD
:100BEC001CF046C12DF047C12EF048C12FF049C171
:100BFC0030F062C146F063C147F064C148F065C192
:100C0C0049F05AC142F05BC143F05CC144F05DC194
:100C1C0045F03AEC0DF042C029F043C02AF044C034
:100C2C002BF045C02CF053EC09F029C01DF02AC064
:100C3C001EF02BC01FF02CC020F0F3EC06F019C0F6
:100C4C005EF11AC05FF11BC060F11CC061F15EC1A6
:100C5C0024F15FC125F160C126F161C127F152C1B8
:100C6C0046F153C147F154C148F155C149F14EC148
:100C7C0052F14FC153F150C154F151C155F1000E15
:100C8C00016E000E026EFA0E036E430E046E5EC110
:100C9C0005F05FC106F060C107F061C108F0D5EC4A
:100CAC0011F0D8B05CEF06F05EEF06F067EF06F0DF
:100CBC00000E01015E6F000E5F6FFA0E606F430E47
:100CCC00616F5EC101F05FC102F060C103F061C1F0
:100CDC0004F0000E056E000E066EF00E076E410E4F
:100CEC00086ED5EC11F0D8B07EEF06F080EF06F070
:100CFC0089EF06F0000E01015E6F000E5F6FF00EC3
:100D0C00606F410E616F000E2D6E000E2E6E7F0E09
:100D1C002F6E430E306E5EC101F05FC102F060C1F8
:100D2C0003F061C104F052EC11F001C00BF002C0F1
:100D3C000CF0000E0CBEFF0E0D6E0E6E010E78EC5C
:100D4C0010F00BC029F00CC02AF00DC02BF00EC017
:100D5C002CF053EC09F029C042F02AC043F02BC010
:100D6C0044F02CC045F0000E466E000E476EFA0E95
:100D7C00486E430E496E3AEC0DF042C01CF143C074
:100D8C001DF144C01EF145C01FF156C160F057C1A2
:100D9C0061F058C162F059C163F044C164F045C1BF
:100DAC0065F057EC12F0000E026E010E036EE5ECCE
:100DBC0013F0080E31EC14F00D0E00019F6FAF0E06
:100DCC009E6FB60EE82EFED79E2FFCD79F2FFAD71C
:100DDC0000005DEF04F007EF00F01C50800B256E57
:100DEC001C501C24276E1BAEFEEF06F000EF07F024
:100DFC0001EF07F027802750D8B407EF07F009EF71
:100E0C0007F01EEF07F02728D8A40FEF07F011EF1B
:100E1C0007F019EF07F0000E196E000E1A6E000E97
:100E2C001B6E000E1C6E1B8E000E1C6E26EF07F048
:100E3C00000E196E000E1A6E000E1B6E000E1C6E4C
:100E4C002050800B266E25502618D8B430EF07F0B2
:100E5C0032EF07F033EF07F0258C20502024266E5C
:100E6C001FAE3BEF07F03DEF07F03EEF07F026809B
:100E7C002650D8B444EF07F046EF07F05BEF07F0CD
:100E8C002628D8A44CEF07F04EEF07F056EF07F0EA
:100E9C00000E1D6E000E1E6E000E1F6E000E206EDC
:100EAC001F8E000E206E63EF07F0000E1D6E000EFD
:100EBC001E6E000E1F6E000E206E2750265CD8B0E2
:100ECC006AEF07F06CEF07F093EF07F025AC71EFCA
:100EDC0007F073EF07F075EF07F0800E251A27C0A7
:100EEC0028F026C027F028C026F019C028F01DC015
:100EFC0019F028C01DF01AC028F01EC01AF028C026
:100F0C001EF01BC028F01FC01BF028C01FF01CC017
:100F1C0028F020C01CF028C020F0000E286E2750AE
:100F2C0026C021F0226A215E000E225A22BEA8EFB2
:100F3C0007F0225009E11A0E215CD8A0A8EF07F0A7
:100F4C00AAEF07F0E1EF07F019501A101B101C1054
:100F5C00D8A4B3EF07F0B6EF07F0010EB7EF07F028
:100F6C00000E286E000E196E000E1A6E000E1B6E0F
:100F7C00000E1C6E26C027F0EAEF07F028A0C9EF80
:100F8C0007F0CBEF07F0D1EF07F0D890283001092C
:100F9C00286ED3EF07F0D890283219A0D8EF07F0BD
:100FAC00DAEF07F0DBEF07F0288E1C341C321B3213
:100FBC001A321932272A2650275CD8A0E8EF07F0FE
:100FCC00EAEF07F0C4EF07F025BCEFEF07F0F1EF05
:100FDC0007F031EF08F02750D8A4F7EF07F0F9EF3E
:100FEC0007F003EF08F0000E196E000E1A6E000EDB
:100FFC001B6E000E1C6E52EF09F01D5019261E5070
:10100C001A221F501B2220501C221CA010EF08F08B
:10101C0012EF08F0BEEF08F028A017EF08F019EF58
:10102C0008F01FEF08F0D89028300109286E21EF46
:10103C0008F0D890283219A026EF08F028EF08F015
:10104C0029EF08F0288E1C341C321B321A3219324C
:10105C00272ABEEF08F01D50195C1E501A581F505D
:10106C001B581C50800A216E2050800A2158D8B081
:10107C0042EF08F044EF08F06FEF08F019501D5CD8
:10108C00216E1A501E58226E1B501F58236E1C5076
:10109C002058246EFF0E2124196EFF0E22201A6E8A
:1010AC00FF0E23201B6EFF0E24201C6E800E251AB3
:1010BC00286C2850D8A465EF08F067EF08F077EF9C
:1010CC0008F0010E1926000E1A221B221C2277EFA3
:1010DC0008F01D50195E1E501A5A1F501B5A2050F2
:1010EC001C5A19501A101B101C10D8A480EF08F0B1
:1010FC0082EF08F0B7EF08F02850D8A488EF08F07A
:10110C008AEF08F0B7EF08F0000E196E000E1A6E99
:10111C00000E1B6E000E1C6E52EF09F0D8901936A3
:10112C001A361B361C3628AE9EEF08F0A0EF08F0DE
:10113C00A1EF08F0198028A0A6EF08F0A8EF08F09E
:10114C00ACEF08F0D8802836AEEF08F0D8902836EF
:10115C002750D8B4B4EF08F0B6EF08F0B7EF08F0AA
:10116C0027061BAEBCEF08F0BEEF08F094EF08F0BA
:10117C00000E266E28AEC5EF08F0C7EF08F0DFEFC3
:10118C0008F028C021F07F0E2116D8B4D0EF08F05B
:10119C00D2EF08F0D6EF08F0010E266EDFEF08F064
:1011AC0019A0DBEF08F0DDEF08F0DFEF08F0D2EF6D
:1011BC0008F02650D8B4E5EF08F0E7EF08F012EF8E
:1011CC0009F0010E1926000E1A221B221C221CA04B
:1011DC00F2EF08F0F4EF08F012EF09F019C021F06B
:1011EC001AC022F01BC023F01CC024F0243424327B
:1011FC0023322232213221C019F022C01AF023C02E
:10120C001BF024C01CF02728D8B40FEF09F011EF05
:10121C0009F012EF09F0272A2728D8B418EF09F0A3
:10122C001AEF09F022EF09F02750D8A420EF09F0AB
:10123C0022EF09F034EF09F0000E196E000E1A6E51
:10124C00000E1B6E000E1C6E2750D8A430EF09F058
:10125C0032EF09F034EF09F0000E256E27A039EFBC
:10126C0009F03BEF09F03EEF09F01B8E3FEF09F060
:10127C001B9ED89027301C6E25AE47EF09F049EF26
:10128C0009F04AEF09F01C8E19C019F01AC01AF0B7
:10129C001BC01BF01CC01CF012002C50800B356EB8
:1012AC002C502C243B6E2BAE5EEF09F060EF09F056
:1012BC0061EF09F03B803B50D8B467EF09F069EF60
:1012CC0009F07CEF09F03B28D8A46FEF09F071EF1F
:1012DC0009F079EF09F0000E296E000E2A6E000E4F
:1012EC002B6E000E2C6E2B8E84EF09F0000E296EE7
:1012FC00000E2A6E000E2B6E000E2C6E3050800BE2
:10130C00351A305030243A6E2FAE8FEF09F091EF32
:10131C0009F092EF09F03A803A50D8B498EF09F0FE
:10132C009AEF09F0ADEF09F03A28D8A4A0EF09F034
:10133C00A2EF09F0AAEF09F0000E2D6E000E2E6E32
:10134C00000E2F6E000E306E2F8EB5EF09F0000ED2
:10135C002D6E000E2E6E000E2F6E000E306E3A505B
:10136C00D8B4BBEF09F0BDEF09F0C5EF09F03B5065
:10137C00D8A4C3EF09F0C5EF09F0CFEF09F0000EC8
:10138C00296E000E2A6E000E2B6E000E2C6E67EF6F
:10139C000BF02F502902F3CF40F0F4CF41F0405026
:1013AC00366E376A386A396A41503C6E3D6A3E6A1D
:1013BC003F6A2E502A02F3CF40F0F4CF41F0405058
:1013CC003626000E37223822392241503C26000E98
:1013DC003D223E223F222D502B02F3CF40F0F4CF82
:1013EC0041F040503626000E372238223922415027
:1013FC003C26000E3D223E223F2238C039F037C039
:10140C0038F036C037F0366A2D502A02F3CF40F050
:10141C00F4CF41F04050362641503722000E38228E
:10142C00000E39222E502902F3CF40F0F4CF41F0B8
:10143C004050362641503722000E3822000E3922F9
:10144C0038C039F037C038F036C037F0366A2D5016
:10145C002902F3CF40F0F4CF41F0405036264150F2
:10146C003722000E3822000E39222F502A02F3CFD9
:10147C0040F0F4CF41F040503C2641503D22000E4C
:10148C003E22000E3F222E502B02F3CF40F0F4CF21
:10149C0041F040503C2641503D22000E3E22000EB1
:1014AC003F222F502B02F3CF40F0F4CF41F04050AD
:1014BC00316E4150326E336A346A33C034F032C00C
:1014CC0033F031C032F0316A31503C2632503D227B
:1014DC0033503E2234503F2236C031F037C032F008
:1014EC0038C033F039C034F0190E82EF0AF0D890BE
:1014FC003432333232323132E82E7DEF0AF0315051
:10150C003C2632503D2233503E2234503F2238C0CC
:10151C0039F037C038F036C037F0366A3A503BC035
:10152C0031F0326A3126000E3222820E3124406EA6
:10153C00FF0E3220416EB8EF0AF0D8903C363D36A3
:10154C003E363F3639AEADEF0AF0AFEF0AF0B0EFF2
:10155C000AF03C80D8903636373638363936400665
:10156C00D8A041063EAEBDEF0AF0BFEF0AF0A3EFE4
:10157C000AF0000E3A6E39AEC6EF0AF0C8EF0AF068
:10158C00ECEF0AF0FF0E3614316EFF0E3714326E8C
:10159C00FF0E3814336E7F0E3914346E3150321006
:1015AC0033103410D8B4DDEF0AF0DFEF0AF0E3EFBC
:1015BC000AF0010E3A6EECEF0AF03CA0E8EF0AF0EC
:1015CC00EAEF0AF0ECEF0AF0DFEF0AF03A50D8B489
:1015DC00F2EF0AF0F4EF0AF018EF0BF0010E3C26D4
:1015EC00000E3D223E223F223FA0FFEF0AF001EF0A
:1015FC000BF018EF0BF03CC031F03DC032F03EC0A8
:10160C0033F03FC034F0343434323332323231328E
:10161C0031C03CF032C03DF033C03EF034C03FF03E
:10162C00404A412A41BE23EF0BF0415008E14028CB
:10163C00D8A023EF0BF025EF0BF02FEF0BF0000EE3
:10164C003C6E000E3D6E800E3E6E7F0E3F6E5DEF6B
:10165C000BF041BE3CEF0BF0415006E14004D8B01A
:10166C003AEF0BF03CEF0BF048EF0BF0000E3C6E3A
:10167C00000E3D6E000E3E6E000E3F6E000E356E7F
:10168C005DEF0BF040C03BF0FF0E3C16FF0E3D161D
:10169C007F0E3E16000E3F163BA057EF0BF059EF96
:1016AC000BF05AEF0BF03E8ED8903B303F6E35501E
:1016BC003F123CC029F03DC02AF03EC02BF03FC089
:1016CC002CF01200E80E00019A6F010E9B6F000EB9
:1016DC009C6F000E9D6F8651851109E1400E835D54
:1016EC001F0E8459D8B07DEF0BF07FEF0BF089EF14
:1016FC000BF0000E8D6F020E8C6F000E8F6F100EA4
:10170C008E6F91EF0BF0000E8D6F000E8C6F000E34
:10171C008F6F010E8E6F865185110BE1E90E835D83
:10172C00010E8459D8A09DEF0BF09FEF0BF0ADEF9D
:10173C000BF0000E956F070E946F000E906F120E4B
:10174C00916F7A0E926F000E936F85EF0CF0D8901C
:10175C009D339C339B339A3383519A5D84519B59AF
:10176C0085519C5986519D59D8B0BFEF0BF0C1EFF4
:10177C000BF0CFEF0BF0000E956F060E946F000E72
:10178C00906F090E916F3D0E926F000E936F85EF67
:10179C000CF0D8909D339C339B339A3383519A5DD4
:1017AC0084519B5985519C5986519D59D8B0E1EF74
:1017BC000BF0E3EF0BF0F1EF0BF0000E956F050E55
:1017CC00946F800E906F840E916F1E0E926F000EB0
:1017DC00936F85EF0CF0D8909D339C339B339A33E9
:1017EC0083519A5D84519B5985519C5986519D59C1
:1017FC00D8B003EF0CF005EF0CF013EF0CF0000E6B
:10180C00956F040E946F400E906F420E916F0F0EF9
:10181C00926F000E936F85EF0CF0D8909D339C3334
:10182C009B339A3383519A5D84519B5985519C59B2
:10183C0086519D59D8B025EF0CF027EF0CF035EF01
:10184C000CF0000E956F030E946F200E906FA10E8E
:10185C00916F070E926F000E936F85EF0CF0D8907E
:10186C009D339C339B339A3383519A5D84519B599E
:10187C0085519C5986519D59D8B047EF0CF049EFD2
:10188C000CF057EF0CF0000E956F020E946F900E4B
:10189C00906FD00E916F030E926F000E936F85EFC9
:1018AC000CF0D8909D339C339B339A3383519A5DC3
:1018BC0084519B5985519C5986519D59D8B069EFDB
:1018CC000CF06BEF0CF079EF0CF0000E956F010E35
:1018DC00946F480E906FE80E916F010E926F000E90
:1018EC00936F85EF0CF0000E956F000E946F180E31
:1018FC00906F790E916F000E926F000E936F000E29
:10190C002D6E000E2E6E800E2F6E400E306E8EC021
:10191C000BF08FC00CF0000E0CBEFF0E0D6E0E6E99
:10192C00010E78EC10F00BC029F00CC02AF00DC0A1
:10193C002BF00EC02CF053EC09F029C088F02AC013
:10194C0089F02BC08AF02CC08BF083C00BF084C0C4
:10195C000CF085C00DF086C00EF0000E78EC10F087
:10196C000BC02DF00CC02EF00DC02FF00EC030F0BF
:10197C0088C029F089C02AF08AC02BF08BC02CF0CB
:10198C0053EC09F029C046F02AC047F02BC048F0B0
:10199C002CC049F090C00BF091C00CF092C00DF02F
:1019AC0093C00EF0000E78EC10F00BC042F00CC09F
:1019BC0043F00DC044F00EC045F03AEC0DF042C0BF
:1019CC0019F043C01AF044C01BF045C01CF0000EC7
:1019DC001D6E000E1E6E800E1F6EBF0E206EF3EC81
:1019EC0006F019C096F01AC097F01BC098F01CC0F6
:1019FC0099F096C05BF097C05CF098C05DF099C010
:101A0C005EF007EC0FF05BC096F05CC097F05DC029
:101A1C0098F05EC099F094C087F0070E000187170C
:101A2C008739F00B0209D36E96C001F097C002F013
:101A3C0098C003F099C004F052EC11F00150CB6E39
:101A4C008CC0CAFF000ECC6ECA8496C001F097C041
:101A5C0002F098C003F099C004F052EC11F001C0F0
:101A6C0083F002C084F012004550800B526E45503A
:101A7C004524596E44AE45EF0DF047EF0DF048EF9D
:101A8C000DF059805950D8B44EEF0DF050EF0DF0C9
:101A9C0065EF0DF05928D8A456EF0DF058EF0DF066
:101AAC0060EF0DF0000E426E000E436E000E446EA1
:101ABC00000E456E448E000E456E6DEF0DF0000E5F
:101ACC00426E000E436E000E446E000E456E495081
:101ADC00800B521A495049245A6E48AE78EF0DF0DB
:101AEC007AEF0DF07BEF0DF05A805A50D8B481EF9D
:101AFC000DF083EF0DF098EF0DF05A28D8A489EF74
:101B0C000DF08BEF0DF093EF0DF0000E466E000E06
:101B1C00476E000E486E000E496E488E000E496EE0
:101B2C00A0EF0DF0000E466E000E476E000E486ED4
:101B3C00000E496E4650471048104910D8A4A9EF22
:101B4C000DF0ABEF0DF0C3EF0DF0000E426E000E7A
:101B5C00436E000E446E000E456E800E44127F0ED6
:101B6C0045125250451242C042F043C043F044C0AB
:101B7C0044F045C045F006EF0FF05950D8A4C9EF1A
:101B8C000DF0CBEF0DF0D5EF0DF0000E426E000E08
:101B9C00436E000E446E000E456E06EF0FF05A5069
:101BAC0059C04AF04B6A4A5E000E4B5A7F0E4A24CB
:101BBC00536E000E4B20546E42C04EF043C04FF09B
:101BCC0044C050F045C051F0000E426E000E436E02
:101BDC00000E446E000E456E000E556E000E566ED5
:101BEC00000E576E000E586E000E5A6E36EF0EF049
:101BFC005A50D8B404EF0EF006EF0EF01DEF0EF0B5
:101C0C00D8904E364F3650365136D89042364336F1
:101C1C004436453658AE15EF0EF017EF0EF018EFB0
:101C2C000EF04280D89055365636573658364650B8
:101C3C004E5C47504F584850505849505158D8A0B6
:101C4C002AEF0EF02CEF0EF035EF0EF0588C4650BC
:101C5C004E5E47504F5A4850505A4950515A5A2A82
:101C6C00190E5A643CEF0EF03EEF0EF0FEEF0DF045
:101C7C004E504F1050105110D8B447EF0EF049EFA2
:101C8C000EF061EF0EF0558061EF0EF0D8904236F9
:101C9C0043364436453658AE56EF0EF058EF0EF03C
:101CAC0059EF0EF04280D890553656365736583686
:101CBC005306D8A0540644AE66EF0EF068EF0EF053
:101CCC004CEF0EF0000E5A6E58AE6FEF0EF071EF37
:101CDC000EF095EF0EF0FF0E55144A6EFF0E5614D3
:101CEC004B6EFF0E57144C6E7F0E58144D6E4A50AF
:101CFC004B104C104D10D8B486EF0EF088EF0EF050
:101D0C008CEF0EF0010E5A6E95EF0EF042A091EF93
:101D1C000EF093EF0EF095EF0EF088EF0EF05A5098
:101D2C00D8B49BEF0EF09DEF0EF0C1EF0EF0010E4C
:101D3C004226000E43224422452245A0A8EF0EF075
:101D4C00AAEF0EF0C1EF0EF042C04AF043C04BF0C8
:101D5C0044C04CF045C04DF04D344D324C324B32FA
:101D6C004A324AC042F04BC043F04CC044F04DC024
:101D7C0045F0534A542A54BECCEF0EF0545008E1AF
:101D8C005328D8A0CCEF0EF0CEEF0EF0D9EF0EF01A
:101D9C00000E546E5368000E426E000E436E000E21
:101DAC00446E000E456E54BEE6EF0EF0545006E144
:101DBC005304D8B0E4EF0EF0E6EF0EF0F4EF0EF0B3
:101DCC00000E546E000E536E000E426E000E436EEB
:101DDC00000E446E000E456E000E526E53C059F04C
:101DEC0059A0FBEF0EF0FDEF0EF000EF0FF0448E5C
:101DFC0001EF0FF0449ED8905930456EB7EF0DF0BF
:101E0C001200A0C076F0A1C077F0A2C078F0A3C0F9
:101E1C0079F05BC076F05CC077F05DC078F05EC0A6
:101E2C0079F076C068F077C069F078C06AF079C054
:101E3C006BF0180E28EF0FF00001D8906B336A335B
:101E4C0069336833E82E22EF0FF06851746F756BAD
:101E5C0075BF3AEF0FF0755109E1960E745DD8A07D
:101E6C003AEF0FF03CEF0FF046EF0FF05BC05BF07A
:101E7C005CC05CF05DC05DF05EC05EF077EF10F0B2
:101E8C0079BF4BEF0FF04EEF0FF0010E4FEF0FF04D
:101E9C00000E7E6F7E51D8B456EF0FF058EF0FF056
:101EAC006AEF0FF05BC001F05CC002F05DC003F0A4
:101EBC005EC004F0C9EC13F001C05BF002C05CF032
:101ECC0003C05DF004C05EF0000175BF79EF0FF048
:101EDC00755107E17E0E745DD8B077EF0FF079EF96
:101EEC000FF083EF0FF0000E5B6E000E5C6E000EB9
:101EFC005D6E000E5E6E77EF10F0000E1D6E000E24
:101F0C001E6E000E1F6E4B0E206E5BC019F05CC077
:101F1C001AF05DC01BF05EC01CF0F3EC06F019C0AB
:101F2C007AF01AC07BF01BC07CF01CC07DF0000E58
:101F3C001D6E000E1E6E000E1F6ECB0E206E7AC034
:101F4C0019F07BC01AF07CC01BF07DC01CF0F3ECC8
:101F5C0006F019C06CF01AC06DF01BC06EF01CC0FE
:101F6C006FF06CC060F06DC061F06EC062F06FC05D
:101F7C0063F05BC064F05CC065F05DC066F05EC091
:101F8C0067F083EC13F060C07FF061C080F062C03A
:101F9C0081F063C082F0000E0001706F000E716F53
:101FAC00000E726F000E736F000E016E000E026E4B
:101FBC00000E036E3F0E046E7FC005F080C006F06D
:101FCC0081C007F082C008F0D5EC11F0D8B0F1EF69
:101FDC000FF0F3EF0FF0FEEF0FF0000E0001706F3B
:101FEC00000E716F800E726FBF0E736F20EF10F0CA
:101FFC00000E016E000E026E000E036EBF0E046E1C
:10200C007FC005F080C006F081C007F082C008F0E8
:10201C00D5EC11F0D8A015EF10F017EF10F020EF61
:10202C0010F0000E0001706F000E716F800E726F59
:10203C003F0E736F5BC01DF05CC01EF05DC01FF0E7
:10204C005EC020F07FC019F080C01AF081C01BF078
:10205C0082C01CF0F3EC06F019C07AF01AC07BF0C9
:10206C001BC07CF01CC07DF07AC019F07BC01AF04C
:10207C007CC01BF07DC01CF070C01DF071C01EF048
:10208C0072C01FF073C020F0F3EC06F019C07FF0A3
:10209C001AC080F01BC081F01CC082F000017E5180
:1020AC00D8B45BEF10F05DEF10F06FEF10F07FC065
:1020BC0001F080C002F081C003F082C004F0C9ECD2
:1020CC0013F001C07FF002C080F003C081F004C0A7
:1020DC0082F07FC05BF080C05CF081C05DF082C09C
:1020EC005EF01200136E1350D8B47FEF10F081EF36
:1020FC0010F0A3EF10F00EBE88EF10F086EF10F08A
:10210C00A3EF10F00BC00FF00CC010F00DC011F0CD
:10211C000EC012F00F1E101E111E121E0F2A000EE2
:10212C001022112212220FC015F010C016F011C08F
:10213C0017F012C018F0ABEF10F00BC015F00CC07C
:10214C0016F00DC017F00EC018F00B500C100D103F
:10215C000E10D8A4B4EF10F0B6EF10F0C0EF10F0E2
:10216C00000E0B6E000E0C6E000E0D6E000E0E6E41
:10217C0051EF11F0960E146ECAEF10F0142AD8908D
:10218C001832173216321532000E15140F6E000E5F
:10219C001614106E000E1714116EFE0E1814126E1B
:1021AC000F50101011101210D8A4DFEF10F0E1EF47
:1021BC0010F0C4EF10F0EFEF10F0142A010E1526FA
:1021CC00000E162217221822D89018321732163207
:1021DC001532000E15140F6E000E1614106E000E34
:1021EC001714116EFF0E1814126E0F5010101110E0
:1021FC001210D8A404EF11F006EF11F0E3EF10F079
:10220C000EEF11F01406D890153616361736183610
:10221C0017BE13EF11F015EF11F01DEF11F0020EB8
:10222C0014601BEF11F01DEF11F008EF11F014B05A
:10223C0022EF11F024EF11F025EF11F0179ED8903A
:10224C00143214C00FF0106A116A126A0FC012F027
:10225C00116A106A0F6A0F50151210501612115095
:10226C001712125018121350D8B43FEF11F041EF5F
:10227C0011F049EF11F00EBE48EF11F046EF11F0DE
:10228C0049EF11F0188E15C00BF016C00CF017C0EA
:10229C000DF018C00EF01200033404340A6E0A500C
:1022AC00D8A45BEF11F05DEF11F067EF11F0000EA9
:1022BC00016E000E026E000E036E000E046ED4EF63
:1022CC0011F001C005F002C006F003C007F004C015
:1022DC0008F0200E77EF11F0D89008320732063252
:1022EC000532E82E72EF11F00550096E038EFF0EC9
:1022FC000116FF0E0216FF0E0316000E0416960EA4
:10230C000A5E0ABE8EEF11F08CEF11F0A4EF11F003
:10231C000A50800A970FD8B096EF11F098EF11F091
:10232C009AEF11F05DEF11F0D890043203320232C3
:10233C0001320A3E9AEF11F0BCEF11F01F0E0A6445
:10234C00AAEF11F0ACEF11F0B4EF11F05DEF11F05A
:10235C00D89001360236033604360A060A50D8A441
:10236C00BAEF11F0BCEF11F0AEEF11F00950D8B488
:10237C00C2EF11F0C4EF11F0CCEF11F0041E031EEC
:10238C00021E016C000E02220322042201C001F085
:10239C0002C002F003C003F004C004F01200000EEF
:1023AC000114096E000E02140A6E800E03140B6EDB
:1023BC007F0E04140C6E09500A100B100C10D8A4CC
:1023CC00EAEF11F0ECEF11F0F4EF11F0000E016EEA
:1023DC00000E026E000E036E000E046E000E05144D
:1023EC00096E000E06140A6E800E07140B6E7F0E1B
:1023FC0008140C6E09500A100B100C10D8A409EF1D
:10240C0012F00BEF12F013EF12F0000E056E000E2F
:10241C00066E000E076E000E086E04AE18EF12F07A
:10242C001AEF12F023EF12F0016C021ED8B0022A40
:10243C00031ED8B0032A800E045608AE28EF12F003
:10244C002AEF12F033EF12F0056C061ED8B0062AF4
:10245C00071ED8B0072A800E0856000E011A000E6F
:10246C00021A000E031A800E041A000E051A000E32
:10247C00061A000E071A800E081A0550015C065049
:10248C0002580750035808500458D8B050EF12F0B7
:10249C0052EF12F055EF12F0D89056EF12F0D880A0
:1024AC001200000E2D6E000E2E6E800E2F6E400E42
:1024BC00306E000E1D6E000E1E6E800E1F6E3F0ED7
:1024CC00206E64C00BF065C00CF0000E0CBEFF0E4D
:1024DC000D6E0E6E010E78EC10F00BC019F00CC0E6
:1024EC001AF00DC01BF00EC01CF0F3EC06F019C076
:1024FC0029F01AC02AF01BC02BF01CC02CF053EC96
:10250C0009F029C066F02AC067F02BC068F02CC017
:10251C0069F0000E466E000E476EC80E486E420EF5
:10252C00496E60C042F061C043F062C044F063C0C9
:10253C0045F03AEC0DF042C02DF043C02EF044C0F3
:10254C002FF045C030F066C029F067C02AF068C093
:10255C002BF069C02CF053EC09F029C001F02AC013
:10256C0002F02BC003F02CC004F052EC11F001C0AF
:10257C006AF002C06BF06AC05BF06BC05CF05C345C
:10258C005C325B325C345C325B325B50BE6E6AC078
:10259C005BF0030E5B165B38F00B0C09BD6E120082
:1025AC00000E066E04BEDFEF12F0DDEF12F0E5EF69
:1025BC0012F0036C041ED8B0042A010E066E02BE83
:1025CC00ECEF12F0EAEF12F0F2EF12F0016C021ED7
:1025DC00D8B0022A010E061A000E086E000E076E05
:1025EC0003500410D8B4FDEF12F0FFEF12F027EFF8
:1025FC0013F0010E056E07EF13F0D8900336043676
:10260C00052A04AE0CEF13F00EEF13F003EF13F0EA
:10261C00D890073608360350015C04500258D8A0F5
:10262C001AEF13F01CEF13F021EF13F00350015EBF
:10263C000450025A0780D89004320332052E0EEF54
:10264C0013F00650D8B42DEF13F02FEF13F033EF37
:10265C0013F0076C081ED8B0082A07C001F008C098
:10266C0002F01200076E07C003F0D8900336D89022
:10267C0003363C0E0316C250C30B0310C26EC2B21B
:10268C004AEF13F04EEF13F0036A032A4FEF13F0E7
:10269C00036A010E046E032A56EF13F0D890043629
:1026AC00032E54EF13F0C2B05EEF13F062EF13F091
:1026BC00056A052A63EF13F0056A010E066E052AFA
:1026CC006AEF13F0D8900636052E68EF13F006501B
:1026DC000410C212C2B275EF13F077EF13F070EF63
:1026EC0013F0C350C4CF03F0046A03C004F0036AB0
:1026FC000310016E0450026E1200000E0001641BE8
:10270C00000E651B000E661B800E671B60C019F067
:10271C0061C01AF062C01BF063C01CF064C01DF0F5
:10272C0065C01EF066C01FF067C020F0F3EC06F029
:10273C0019C060F01AC061F01BC062F01CC063F0DD
:10274C001200260EF66E280EF76E000EF86E01EED5
:10275C0066F010EE1EF00900F5CFEEFFE550E150EB
:10276C00FAE10101856B846B00EEA0F0080EEE6AB5
:10277C00E806FDE15F905F92000EF86E080EF76EB2
:10278C00000106EF04F00150021003100410D8B43D
:10279C00D2EF13F0D4EF13F0DCEF13F0000E011AAC
:1027AC00000E021A000E031A800E041A01C001F06A
:1027BC0002C002F003C003F004C004F01200000ECB
:1027CC00056E000E046EF6EF13F004500224D96E61
:1027DC0005500320DA6EDF5022EC14F0044A052A6F
:1027EC0002500310D8A4FDEF13F0FFEF13F0EBEF42
:1027FC0013F01200AB8E948E949CAC9CAC8AAC986B
:10280C00AC96AC94AC82AB9CAB88AB96AB94AB92D5
:10281C00B89EB886810EAF6E1200566572696669F5
:10282C00636163696F6E20636F6D756E696361635D
:10283C00696F6E200A007601016EAC98AB8EAC8A83
:10284C00AC8AACA22CEF14F02EEF14F027EF14F09E
:10285C0001C0ADFF1200016EAC98AB8EAC8AAC8A95
:10286C00ACA23BEF14F03DEF14F036EF14F001C0C6
:10287C00ADFF12000600F2A246EF14F048EF14F080
:10288C004CEF14F00101844B852BF2925F921100F6
:10289C00F294D58E000ED56E000ED76E000ED66E4D
:1028AC00F28AF29412009268070EC16E920EC06EFC
:1028BC00000EC46E000EC36E1200F288F29293806A
:1028CC00F28EF28CF19C120094940C0EBD6E1200E0
:020000040020DA
:08000000FFFFFFFFFFFFFFFF00
:020000040030CA
:0E00000000091F1EFF0181FF0FC00FE00F401F
:00000001FF
