:0400000070EF04F0A9
:100800000000000E8C6E82500F0B036E28EF04F078
:1008100080CF8CFFA60EE82EFED700D04DEF04F05F
:1008200081CF8CFF0AEF04F0805081248C6E4DEF55
:1008300004F08050815C8C6E4DEF04F08150801488
:100840008C6E4DEF04F0815080108C6E4DEF04F0F3
:100850000350016E026A0250000AD8B432EF04F06D
:100860004DEF04F00150000AD8B408EF04F0010A7B
:10087000D8B410EF04F0030AD8B414EF04F0010A5E
:10088000D8B419EF04F0070AD8B41EEF04F00C0A2C
:10089000D8B423EF04F04DEF04F012000F0EC16E38
:1008A000000E896E000E806E3F0E926E000E8A6EF4
:1008B000000E816E9368000E8B6E000E826E0F0E1E
:1008C000946E000E8C6E000E836E000E956E1200FC
:1008D0004EEC04F001EC04F06AEF04F000EF00F0DD
:0A08E000000EF86E000168EF04F04E
:020000040020DA
:08000000FFFFFFFFFFFFFFFF00
:020000040030CA
:0E000000000C1F1EFF8385FF0FC00FE00F4096
:00000001FF
