:040000004EEF1FF0B0
:1008000000566F6C74616A653A2025302E3266009E
:100810004144433A20257520202000494E46004E91
:0F082000414E00696E66006E616E006C660000EE
:10083000000E0001806F000E7F6F57C091F058C00E
:1008400092F059C093F05AC094F094BF2CEF04F08A
:100850002AEF04F042EF04F0000E806F010E7F6F6C
:1008600091C001F092C002F093C003F094C004F074
:10087000CEEC1EF001C091F002C092F003C093F0E4
:1008800004C094F0000E0001986F000E976FE1C055
:1008900083F0E2C084F07F518011D8A452EF04F0BD
:1008A00054EF04F05BEF04F0E5A559EF04F05BEFC3
:1008B00004F075EF04F07F518011D8A462EF04F0CA
:1008C00064EF04F06AEF04F0000E666F2B0E656FA4
:1008D0006EEF04F0000E666F2D0E656F65C000F1BF
:1008E000974B982B8307D8A0840791C001F092C042
:1008F00002F093C003F094C004F0CBEC18F00104B4
:100900000210D8A486EF04F088EF04F0DFEF04F0C3
:10091000BF0E0001606FFF0E616F5B50626F636B13
:10092000605162276151632363510AE11A0E625DCF
:10093000D8A09DEF04F0A0EF04F0010EA1EF04F0A9
:10094000000E676F686B67516811D8B4AAEF04F0A6
:10095000ACEF04F0BAEF04F0000E9725016E010E23
:100960009821026E1B0E036E080E046E7CEC1DF0C7
:10097000C6EF04F0000E9725016E010E9821026E5D
:10098000230E036E080E046E7CEC1DF00001FD0EBC
:100990008327FF0E842355C011F056C012F0000EBD
:1009A000136E010E146E83C015F084C016F063EC54
:1009B0001BF011C055F012C056F043EF0AF091C081
:1009C00001F092C002F093C003F094C004F0CBECAD
:1009D00018F001500210D8A4F0EF04F0F2EF04F088
:1009E00032EF05F0BF0E0001606FFF0E616F5B50CC
:1009F000626F636B605162276151632363510AE147
:100A00001A0E625DD8A007EF05F00AEF05F0010E9F
:100A10000BEF05F0000E696F6A6B69516A11D8B46B
:100A200014EF05F016EF05F024EF05F0000E972502
:100A3000016E010E9821026E1F0E036E080E046EE9
:100A40007CEC1DF0C6EF04F0000E9725016E010E40
:100A50009821026E270E036E080E046E7CEC1DF0CA
:100A6000C6EF04F0000E0001996F000E9A6F800E21
:100A70009B6F3F0E9C6F000E966F000E956F91C09E
:100A800001F092C002F093C003F094C004F0000E95
:100A9000056E000E066E000E076E000E086E80ECEE
:100AA0001CF0D8B056EF05F058EF05F0DBEF05F07D
:100AB00077EF05F099C00FF09AC010F09BC011F0CD
:100AC0009CC012F0000E136E000E146E200E156EF8
:100AD000410E166E8CEC0FF00FC099F010C09AF01A
:100AE00011C09BF012C09CF00001954B962B91C059
:100AF00028F092C029F093C02AF094C02BF0000E89
:100B0000136E000E146E200E156E410E166E99C0F7
:100B10000FF09AC010F09BC011F09CC012F08CEC4A
:100B20000FF00FC02CF010C02DF011C02EF012C02D
:100B30002FF049EC18F0D8B0A0EF05F0A2EF05F0C7
:100B40005AEF05F0C2EF05F099C028F09AC029F0DD
:100B50009BC02AF09CC02BF0000E2C6E000E2D6E58
:100B6000200E2E6E410E2F6EA1EC11F028C099F0D0
:100B700029C09AF02AC09BF02BC09CF00001950779
:100B8000D8A0960791C028F092C029F093C02AF00F
:100B900094C02BF099C02CF09AC02DF09BC02EF081
:100BA0009CC02FF049EC18F0D8A0D9EF05F0DBEF8E
:100BB00005F0A4EF05F05BC007F0086A4CEC1DF0EF
:100BC00007500001866F86C085F0670E8619D8A48D
:100BD000ECEF05F0EEEF05F014EF06F0E351E41151
:100BE000D8A4F5EF05F0F7EF05F0FBEF05F0000EE8
:100BF000E46F010EE36FE4BF08EF06F0E45106E195
:100C0000E305D8B006EF06F008EF06F00EEF06F0A9
:100C1000000E826F060E816F1DEF06F0E3C081F0BB
:100C2000E4C082F01DEF06F0E4BF19EF06F01BEF01
:100C300006F008EF06F00EEF06F0670E8619D8A44E
:100C400024EF06F026EF06F055EF06F096AF34EFEE
:100C500006F0FC0E955DFF0E9659D8A032EF06F017
:100C600034EF06F053EF06F0FF0E606FFF0E616F7A
:100C700081C062F082C063F06051622761516323DA
:100C80009551625D6351800A646F9651800A645980
:100C9000D8A04DEF06F04FEF06F053EF06F0660ECA
:100CA000856F55EF06F0650E856F81C077F082C0C5
:100CB00078F0670E8619D8A460EF06F062EF06F0B0
:100CC00072EF06F0660E8519D8A469EF06F06BEF97
:100CD00006F074EF06F096BF72EF06F070EF06F0C4
:100CE00074EF06F0774B782B660E8519D8A47BEF4E
:100CF00006F07DEF06F09DEF06F096BF84EF06F05C
:100D000082EF06F090EF06F0000E996F000E9A6FDA
:100D1000800E9B6F3F0E9C6F000E966F000E956FBE
:100D2000670E8619D8B497EF06F099EF06F09DEF9D
:100D300006F09551772796517823000E906F000E9C
:100D40008F6F91C087F092C088F093C089F094C0F3
:100D50008AF099C079F09AC07AF09BC07BF09CC071
:100D60007CF02EEF07F087C028F088C029F089C0FA
:100D70002AF08AC02BF099C02CF09AC02DF09BC0AD
:100D80002EF09CC02FF0A1EC11F028C041F029C03A
:100D900042F02AC043F02BC044F06EEC13F041C087
:100DA0008BF042C08CF043C08DF044C08EF08BC0FD
:100DB00001F08CC002F08DC003F08EC004F0C6ECD0
:100DC00017F001C07DF002C07EF087C028F088C017
:100DD00029F089C02AF08AC02BF099C013F09AC07C
:100DE00014F09BC015F09CC016F08BC00FF08CC0A7
:100DF00010F08DC011F08EC012F08CEC0FF00FC00F
:100E00002CF010C02DF011C02EF012C02FF02AECE3
:100E10001EF028C087F029C088F02AC089F02BC0B6
:100E20008AF099C028F09AC029F09BC02AF09CC093
:100E30002BF0000E2C6E000E2D6E200E2E6E410E2D
:100E40002F6EA1EC11F028C099F029C09AF02AC0A9
:100E50009BF02BC09CF000018F4B902B77518F5D46
:100E60009051800A606F7851800A6059D8A03BEF9A
:100E700007F03DEF07F0B3EF06F099C00FF09AC00E
:100E800010F09BC011F09CC012F0000E136E000E0B
:100E9000146EA00E156E400E166E8CEC0FF00FC087
:100EA0008BF010C08CF011C08DF012C08EF087C096
:100EB00028F088C029F089C02AF08AC02BF08BC0A6
:100EC0002CF08CC02DF08DC02EF08EC02FF049EC90
:100ED00018F0D8B06EEF07F070EF07F07BEF07F077
:100EE000000E00018B6F000E8C6F000E8D6F000ED8
:100EF0008E6FA4EF07F087C001F088C002F089C0B0
:100F000003F08AC004F08BC005F08CC006F08DC0E1
:100F100007F08EC008F080EC1CF0D8A092EF07F02C
:100F200094EF07F0A4EF07F000017DB19AEF07F00E
:100F30009CEF07F0A4EF07F0000E8B6F000E8C6F94
:100F4000000E8D6F000E8E6F91C001F092C002F006
:100F500093C003F094C004F08BC005F08CC006F081
:100F60008DC007F08EC008F02CEC0DF001C087F0AA
:100F700002C088F003C089F004C08AF087C028F05E
:100F800088C029F089C02AF08AC02BF0000E136EA9
:100F9000000E146E200E156E410E166E79C00FF005
:100FA0007AC010F07BC011F07CC012F08CEC0FF016
:100FB0000FC02CF010C02DF011C02EF012C02FF079
:100FC00049EC18F0D8A0E7EF07F0E9EF07F012EFCF
:100FD00008F00001954B962B79C00FF07AC010F005
:100FE0007BC011F07CC012F0000E136E000E146E68
:100FF000200E156E410E166E8CEC0FF00FC079F0BE
:1010000010C07AF011C07BF012C07CF0660E0001B7
:101010008519D8A40EEF08F010EF08F012EF08F0D1
:10102000774B782B79C099F07AC09AF07BC09BF00F
:101030007CC09CF0650E00018519D8B422EF08F041
:1010400024EF08F02AEF08F095C075F096C076F00E
:101050002EEF08F0000E766F000E756F000E746FA5
:10106000000E736F000E726F000E716F000E906FA6
:10107000000E8F6F29EF09F087C028F088C029F093
:1010800089C02AF08AC02BF099C02CF09AC02DF0AC
:101090009BC02EF09CC02FF0A1EC11F028C041F0B5
:1010A00029C042F02AC043F02BC044F06EEC13F08C
:1010B00041C08BF042C08CF043C08DF044C08EF034
:1010C0008BC001F08CC002F08DC003F08EC004F024
:1010D000C6EC17F001C07DF002C07EF00001E5B95A
:1010E00074EF08F076EF08F093EF08F07D517E1171
:1010F000D8A47DEF08F07FEF08F093EF08F0670EBB
:101100008619D8A486EF08F088EF08F093EF08F06E
:1011100076BF8FEF08F08DEF08F093EF08F0714B7A
:10112000722BDDEF08F073517411D8A49AEF08F018
:101130009CEF08F0C6EF08F076BFA3EF08F0A1EF30
:1011400008F0C6EF08F0000E9725D96E010E982121
:10115000DA6E2E0EDF6E974B982B8307D8A084078C
:10116000000E746F010E736FC6EF08F0000E972526
:10117000D96E010E9821DA6E300EDF6E974B982BE8
:101180008307D8A084077107D8A072077151721124
:10119000D8A4CDEF08F0CFEF08F0B6EF08F0000EBE
:1011A0009725D96E010E9821DA6E7D51300FDF6ED2
:1011B000974B982B8307D8A0840787C028F088C056
:1011C00029F089C02AF08AC02BF099C013F09AC088
:1011D00014F09BC015F09CC016F08BC00FF08CC0B3
:1011E00010F08DC011F08EC012F08CEC0FF00FC01B
:1011F0002CF010C02DF011C02EF012C02FF02AECF0
:101200001EF028C087F029C088F02AC089F02BC0C2
:101210008AF099C028F09AC029F09BC02AF09CC09F
:101220002BF0000E2C6E000E2D6E200E2E6E410E39
:101230002F6EA1EC11F028C099F029C09AF02AC0B5
:101240009BF02BC09CF000017507D8A076078F4B50
:10125000902B77518F5D9051800A606F7851800A92
:101260006059D8B036EF09F038EF09F046EF09F0D1
:1012700098BF44EF09F0985109E14B0E975DD8A053
:1012800044EF09F046EF09F03CEF08F07351741198
:10129000D8A44DEF09F04FEF09F060EF09F0E5A990
:1012A00054EF09F056EF09F060EF09F0000E9725B2
:1012B000D96E010E9821DA6E2E0EDF6E974B982BA9
:1012C000000E9725D96E010E9821DA6E000EDF6EA2
:1012D000650E8519D8A46FEF09F071EF09F0CBEF17
:1012E00004F0000E906F4F0E8F6F000E8F25D96E99
:1012F000010E9021DA6E000EDF6E000E806F000E80
:101300007F6F96BF88EF09F086EF09F090EF09F044
:10131000000E806F010E7F6F956D961FD8B0962BD3
:10132000000E826F020E816FC1EF09F08F07D8A007
:101330009007000E8F25D96E010E9021DA6E95C0B0
:1013400001F096C002F0000E046E0A0E036E28EC47
:101350001CF00150300FDF6E95C001F096C002F016
:10136000000E046E0A0E036EC6EC1BF001C095F071
:1013700002C096F000018107D8A082078307D8A099
:10138000840795519611D8A4C8EF09F0CAEF09F067
:1013900096EF09F082BFD7EF09F0825106E181058F
:1013A000D8B0D5EF09F0D7EF09F096EF09F08F0725
:1013B000D8A090077F518011D8A4E1EF09F0E3EFA6
:1013C00009F0E9EF09F0000E6C6F2B0E6B6FEDEF7B
:1013D00009F0000E6C6F2D0E6B6F000E8F25D96E0D
:1013E000010E9021DA6E6BC0DFFF8307D8A084075F
:1013F0008F07D8A09007BF0E606FFF0E616F5B5024
:10140000626F636B605162276151632363510AE12C
:101410001A0E625DD8A00FEF0AF012EF0AF0010E6B
:1014200013EF0AF0000E6F6F706B6F517011D8A43C
:101430001CEF0AF01EEF0AF024EF0AF0000E6E6FA8
:10144000650E6D6F28EF0AF0000E6E6F450E6D6F22
:10145000000E8F25D96E010E9021DA6E6DC0DFFF70
:101460008307D8A08407000E9725016E010E9821EE
:10147000026E000E8F25036E010E9021046E7CEC2F
:101480001DF0CBEF04F012009FC0D9FFA0C0DAFF1F
:10149000DECFF6FFDDCFF7FF0800F550250AD8A410
:1014A00054EF0AF056EF0AF010EF0DF09FC0D9FF8D
:1014B000A0C0DAFFDE2A000EDD22000E0001E26F7E
:1014C000000EE16FE1C0E5F0E2C0E6F0E369E46937
:1014D000000EAC6F000EAB6FB4EF0AF0E5819FC059
:1014E000D9FFA0C0DAFFDE2A000EDD22B4EF0AF039
:1014F000E5836FEF0AF0E5856FEF0AF0E5876FEFA0
:101500000AF0E5896FEF0AF0000EAC6F010EAB6FC9
:10151000B4EF0AF09FC0D9FFA0C0DAFFDECFF6FF1C
:10152000DDCFF7FF0800F5505C6E5D6A5D50000A84
:10153000D8B49DEF0AF084EF0AF05C50200AD8B4CA
:101540007EEF0AF0030AD8B481EF0AF0080AD8B493
:101550007BEF0AF0060AD8B46EEF0AF01D0AD8B481
:1015600078EF0AF084EF0AF0AB51AC11D8B4BBEFBE
:101570000AF0BDEF0AF08AEF0AF0E5A1C2EF0AF027
:10158000C4EF0AF0C5EF0AF0E5939FC0D9FFA0C0F1
:10159000DAFFDECFF6FFDDCFF7FF0800F5502E0AA9
:1015A000D8A4D5EF0AF0D7EF0AF055EF0BF0000EF4
:1015B000E46F000EE36F9FC0D9FFA0C0DAFFDE2A00
:1015C000000EDD229FC0D9FFA0C0DAFFDECFF6FFFC
:1015D000DDCFF7FF0800F5502A0AD8A4F2EF0AF091
:1015E000F4EF0AF011EF0BF09FC0D9FFA0C0DAFFB3
:1015F000DE2A000EDD22A1C0D9FFA2C0DAFFDFCFB4
:101600005CF0020EDE26DFCF5DF0000EDD225CC056
:10161000D9FF5DC0DAFFDECFE3F0DDCFE4F055EFB8
:101620000BF09FC0D9FFA0C0DAFFDECF08F0DDCFFE
:1016300009F053EC16F008C0E3F009C0E4F028EF1D
:101640000BF09FC0D9FFA0C0DAFFDE2A000EDD221A
:10165000D00E5C6EFF0E5D6E9FC0D9FFA0C0DAFF9A
:10166000DECFF6FFDDCFF7FF0800F5505E6E5F6A54
:101670005C505E265D505F225F500AE10A0E5E5CA0
:10168000D8A045EF0BF048EF0BF0010E49EF0BF03F
:10169000000E0001AD6FAE6BAD51AE11D8A453EF8B
:1016A0000BF055EF0BF021EF0BF09FC0D9FFA0C05E
:1016B000DAFFDECFF6FFDDCFF7FF0800F550076E4B
:1016C000086A4CEC1DF007500001B56FB551D8B455
:1016D0006CEF0BF06EEF0BF0A8EF0BF09FC0D9FF93
:1016E000A0C0DAFFDECF5CF0DDCF5DF0010E5C263E
:1016F000000E5D225CC0F6FF5DC0F7FF0800F550EC
:10170000076E086A4CEC1DF007500001B66FB65129
:10171000D8B48DEF0BF08FEF0BF0A8EF0BF09FC05C
:10172000D9FFA0C0DAFFDECF5CF0DDCF5DF0020EA6
:101730005C26000E5D225CC0F6FF5DC0F7FF08006E
:10174000F550076E086A4CEC1DF007500001B76FAA
:10175000660EB519D8A4AFEF0BF0B1EF0BF0F1EFB7
:101760000BF09FC0D9FFA0C0DAFFDECFF6FFDDCFC0
:10177000F7FF0800F5CFB8F09FC0D9FFA0C0DAFF8F
:10178000DE2A000EDD22A1C0D9FFA2C0DAFFDFCF22
:101790005CF0040EDE26DFCF5DF0000EDD225CC0C3
:1017A000D9FF5DC0DAFFDECFB1F0DECFB2F0DECF21
:1017B000B3F0DECFB4F09DC055F09EC056F0B1C07E
:1017C00057F0B2C058F0B3C059F0B4C05AF0B8C026
:1017D0005BF018EC04F055C09DF056C09EF02BEF66
:1017E0000DF0B50E016E000E026E2B0E036E080E8C
:1017F000046E000E066E020E056EC2EC19F001506A
:101800000210D8A406EF0CF008EF0CF084EF0CF0F7
:101810009FC0D9FFA0C0DAFFDECF5CF0DDCF5DF066
:10182000010E5C26000E5D225CC0F6FF5DC0F7FF76
:101830000800F5CFB8F0BF0E5C6EFF0E5D6E9FC066
:10184000D9FFA0C0DAFFDECFF6FFDDCFF7FF08003B
:10185000F5505E6E5F6A5C505E265D505F225F50A1
:101860000AE11A0E5E5CD8A038EF0CF03BEF0CF0EA
:10187000010E3CEF0CF0000E0001AF6FB06BAF51EA
:10188000B011D8B446EF0CF048EF0CF062EF0CF05A
:10189000A1C0D9FFA2C0DAFFDFCF5CF0040EDE26C4
:1018A000DFCF5DF0000EDD225CC0D9FF5DC0DAFF46
:1018B000DECFB1F0DECFB2F0DECFB3F0DECFB4F0EA
:1018C0007AEF0CF0A1C0D9FFA2C0DAFFDFCF5CF045
:1018D000040EDE26DFCF5DF0000EDD225CC0D9FFF6
:1018E0005DC0DAFFDECFB1F0DECFB2F0DECFB3F015
:1018F000DECFB4F0020E9FC0D9FFA0C0DAFFDE2613
:10190000000EDD22DBEF0BF09FC0D9FFA0C0DAFF95
:10191000DECFF6FFDDCFF7FF0800F550750AD8A43B
:1019200094EF0CF096EF0CF0D8EF0CF09FC0D9FFBD
:10193000A0C0DAFFDE2A000EDD22A1C0D9FFA2C0BE
:10194000DAFFDFCF5CF0020EDE26DFCF5DF0000EA7
:10195000DD225CC0D9FF5DC0DAFFDECF5EF0DDCFF7
:101960005FF05EC0A3F05FC0A4F00001A56BA66BA2
:10197000A76BA86BA96BAA6B9DC01CF09EC01DF045
:10198000A3C01EF0A4C01FF0A5C020F0A6C021F087
:10199000A7C022F0A8C023F0A9C024F0AAC025F057
:1019A00077EC14F01CC09DF01DC09EF02BEF0DF0E5
:1019B0009FC0D9FFA0C0DAFFDECFF6FFDDCFF7FF73
:1019C0000800F550250AD8A4E8EF0CF0EAEF0CF077
:1019D00002EF0DF09FC0D9FFA0C0DAFFDE2A000E93
:1019E000DD22000E026E250E016E9DC003F09EC02A
:1019F00004F0FEEC1AF0000E00019E6F010E9D6FC8
:101A00002BEF0DF09FC0D9FFA0C0DAFFDE2A000E39
:101A1000DD22000E00019E6F000E9D6F2BEF0DF07A
:101A20009FC0D9FFA0C0DAFFDECFF6FFDDCFF7FF02
:101A30000800F550016E026A9DC003F09EC004F0DC
:101A4000FEEC1AF09FC0D9FFA0C0DAFFDE2A000E1C
:101A5000DD22FBEF0CF012000450800B0D6E0450E1
:101A600004240F6E03AE37EF0DF039EF0DF03AEFAF
:101A70000DF00F800F50D8B440EF0DF042EF0DF095
:101A800057EF0DF00F28D8A448EF0DF04AEF0DF0F6
:101A900052EF0DF0000E016E000E026E000E036E8E
:101AA000000E046E038E000E046E5FEF0DF0000E4C
:101AB000016E000E026E000E036E000E046E0850E2
:101AC000800B0E6E0D500E18D8B469EF0DF06BEF51
:101AD0000DF06CEF0DF00D8C085008240E6E07AE63
:101AE00074EF0DF076EF0DF077EF0DF00E800E50E5
:101AF000D8B47DEF0DF07FEF0DF094EF0DF00E28D0
:101B0000D8A485EF0DF087EF0DF08FEF0DF0000EEC
:101B1000056E000E066E000E076E000E086E078E34
:101B2000000E086E9CEF0DF0000E056E000E066EA6
:101B3000000E076E000E086E0F500E5CD8B0A3EFBB
:101B40000DF0A5EF0DF0CCEF0DF00DACAAEF0DF000
:101B5000ACEF0DF0AEEF0DF0800E0D1A0FC010F0CF
:101B60000EC00FF010C00EF001C010F005C001F063
:101B700010C005F002C010F006C002F010C006F060
:101B800003C010F007C003F010C007F004C010F04D
:101B900008C004F010C008F0000E106E0F500EC008
:101BA00009F00A6A095E000E0A5A0ABEE1EF0DF05A
:101BB0000A5009E11A0E095CD8A0E1EF0DF0E3EF3D
:101BC0000DF01AEF0EF00150021003100410D8A40B
:101BD000ECEF0DF0EFEF0DF0010EF0EF0DF0000E59
:101BE000106E000E016E000E026E000E036E000EEF
:101BF000046E0EC00FF023EF0EF010A002EF0EF0F7
:101C000004EF0EF00AEF0EF0D89010300109106EBC
:101C10000CEF0EF0D890103201A011EF0EF013EF80
:101C20000EF014EF0EF0108E043404320332023240
:101C300001320F2A0E500F5CD8A021EF0EF023EFD7
:101C40000EF0FDEF0DF00DBC28EF0EF02AEF0EF0B8
:101C50006AEF0EF00F50D8A430EF0EF032EF0EF016
:101C60003CEF0EF0000E016E000E026E000E036ED1
:101C7000000E046E8BEF0FF0055001260650022275
:101C8000075003220850042204A049EF0EF04BEF46
:101C90000EF0F7EF0EF010A050EF0EF052EF0EF036
:101CA00058EF0EF0D89010300109106E5AEF0EF078
:101CB000D890103201A05FEF0EF061EF0EF062EFEE
:101CC0000EF0108E043404320332023201320F2A35
:101CD000F7EF0EF00550015C06500258075003580C
:101CE0000450800A096E0850800A0958D8B07BEF6A
:101CF0000EF07DEF0EF0A8EF0EF00150055C096EBE
:101D0000025006580A6E035007580B6E04500858CC
:101D10000C6EFF0E0924016EFF0E0A20026EFF0EEC
:101D20000B20036EFF0E0C20046E800E0D1A106C3B
:101D30001050D8A49EEF0EF0A0EF0EF0B0EF0EF012
:101D4000010E0126000E022203220422B0EF0EF043
:101D50000550015E0650025A0750035A0850045AB3
:101D60000150021003100410D8A4B9EF0EF0BBEF1D
:101D70000EF0F0EF0EF01050D8A4C1EF0EF0C3EF4C
:101D80000EF0F0EF0EF0000E016E000E026E000E6F
:101D9000036E000E046E8BEF0FF0D8900136023602
:101DA0000336043610AED7EF0EF0D9EF0EF0DAEFAF
:101DB0000EF0018010A0DFEF0EF0E1EF0EF0E5EF86
:101DC0000EF0D8801036E7EF0EF0D89010360F5096
:101DD000D8B4EDEF0EF0EFEF0EF0F0EF0EF00F06CF
:101DE00003AEF5EF0EF0F7EF0EF0CDEF0EF0000EB4
:101DF0000E6E10AEFEEF0EF000EF0FF018EF0FF0CA
:101E000010C009F07F0E0916D8B409EF0FF00BEFE0
:101E10000FF00FEF0FF0010E0E6E18EF0FF001A094
:101E200014EF0FF016EF0FF018EF0FF00BEF0FF0AD
:101E30000E50D8B41EEF0FF020EF0FF04BEF0FF065
:101E4000010E0126000E02220322042204A02BEF21
:101E50000FF02DEF0FF04BEF0FF001C009F002C0B3
:101E60000AF003C00BF004C00CF00C340C320B323F
:101E70000A32093209C001F00AC002F00BC003F0B7
:101E80000CC004F00F28D8B448EF0FF04AEF0FF061
:101E90004BEF0FF00F2A0F28D8B451EF0FF053EF8C
:101EA0000FF05BEF0FF00F50D8A459EF0FF05BEF7E
:101EB0000FF06DEF0FF0000E016E000E026E000EBF
:101EC000036E000E046E0F50D8A469EF0FF06BEF95
:101ED0000FF06DEF0FF0000E0D6E0FA072EF0FF010
:101EE00074EF0FF077EF0FF0038E78EF0FF0039E93
:101EF000D8900F30046E0DAE80EF0FF082EF0FF030
:101F000083EF0FF0048E01C001F002C002F003C0A5
:101F100003F004C004F012001250800B1B6E12502C
:101F20001224216E11AE97EF0FF099EF0FF09AEF98
:101F30000FF021802150D8B4A0EF0FF0A2EF0FF0E6
:101F4000B5EF0FF02128D8A4A8EF0FF0AAEF0FF0FB
:101F5000B2EF0FF0000E0F6E000E106E000E116E3D
:101F6000000E126E118EBDEF0FF0000E0F6E000E00
:101F7000106E000E116E000E126E1650800B1B1AA2
:101F800016501624206E15AEC8EF0FF0CAEF0FF0F2
:101F9000CBEF0FF020802050D8B4D1EF0FF0D3EF6B
:101FA0000FF0E6EF0FF02028D8A4D9EF0FF0DBEF09
:101FB0000FF0E3EF0FF0000E136E000E146E000E24
:101FC000156E000E166E158EEEEF0FF0000E136EEE
:101FD000000E146E000E156E000E166E2050D8B452
:101FE000F4EF0FF0F6EF0FF0FEEF0FF02150D8A452
:101FF000FCEF0FF0FEEF0FF008EF10F0000E0F6E89
:10200000000E106E000E116E000E126EA0EF11F099
:1020100015500F02F3CF26F0F4CF27F026501C6E98
:102020001D6A1E6A1F6A2750226E236A246A256A67
:1020300014501002F3CF26F0F4CF27F026501C26C0
:10204000000E1D221E221F2227502226000E2322B0
:102050002422252213501102F3CF26F0F4CF27F0CB
:1020600026501C26000E1D221E221F22275022262B
:10207000000E2322242225221EC01FF01DC01EF0A8
:102080001CC01DF01C6A13501002F3CF26F0F4CFD1
:1020900027F026501C2627501D22000E1E22000E5F
:1020A0001F2214500F02F3CF26F0F4CF27F0265052
:1020B0001C2627501D22000E1E22000E1F221EC0AD
:1020C0001FF01DC01EF01CC01DF01C6A13500F0233
:1020D000F3CF26F0F4CF27F026501C2627501D22E0
:1020E000000E1E22000E1F2215501002F3CF26F004
:1020F000F4CF27F02650222627502322000E242238
:10210000000E252214501102F3CF26F0F4CF27F051
:102110002650222627502322000E2422000E25229C
:1021200015501102F3CF26F0F4CF27F02650176E8A
:102130002750186E196A1A6A19C01AF018C019F0D7
:1021400017C018F0176A175022261850232219506A
:1021500024221A5025221CC017F01DC018F01EC0E2
:1021600019F01FC01AF0190EBBEF10F0D8901A32F8
:10217000193218321732E82EB6EF10F01750222617
:1021800018502322195024221A5025221EC01FF055
:102190001DC01EF01CC01DF01C6A205021C017F08D
:1021A000186A1726000E1822820E1724266EFF0EBC
:1021B0001820276EF1EF10F0D890223623362436FF
:1021C00025361FAEE6EF10F0E8EF10F0E9EF10F063
:1021D0002280D8901C361D361E361F362606D8A003
:1021E000270624AEF6EF10F0F8EF10F0DCEF10F059
:1021F000000E206E1FAEFFEF10F001EF11F025EF83
:1022000011F0FF0E1C14176EFF0E1D14186EFF0E3A
:102210001E14196E7F0E1F141A6E17501810191005
:102220001A10D8B416EF11F018EF11F01CEF11F0DE
:10223000010E206E25EF11F022A021EF11F023EF07
:1022400011F025EF11F018EF11F02050D8B42BEF5A
:1022500011F02DEF11F051EF11F0010E2226000EBA
:1022600023222422252225A038EF11F03AEF11F085
:1022700051EF11F022C017F023C018F024C019F05C
:1022800025C01AF01A341A3219321832173217C010
:1022900022F018C023F019C024F01AC025F0264AF5
:1022A000272A27BE5CEF11F0275008E12628D8A086
:1022B0005CEF11F05EEF11F068EF11F0000E226E8E
:1022C000000E236E800E246E7F0E256E96EF11F0A9
:1022D00027BE75EF11F0275006E12604D8B073EF42
:1022E00011F075EF11F081EF11F0000E226E000E6B
:1022F000236E000E246E000E256E000E1B6E96EFF0
:1023000011F026C021F0FF0E2216FF0E23167F0EBD
:102310002416000E251621A090EF11F092EF11F077
:1023200093EF11F0248ED8902130256E1B5025128A
:1023300022C00FF023C010F024C011F025C012F00D
:1023400012002B50800B386E2B502B243F6E2AAE80
:10235000ACEF11F0AEEF11F0AFEF11F03F803F5056
:10236000D8B4B5EF11F0B7EF11F0CCEF11F03F2872
:10237000D8A4BDEF11F0BFEF11F0C7EF11F0000EC0
:10238000286E000E296E000E2A6E000E2B6E2A8E0D
:10239000000E2B6ED4EF11F0000E286E000E296E89
:1023A000000E2A6E000E2B6E2F50800B381A2F5005
:1023B0002F24406E2EAEDFEF11F0E1EF11F0E2EFCF
:1023C00011F040804050D8B4E8EF11F0EAEF11F07E
:1023D000FFEF11F04028D8A4F0EF11F0F2EF11F068
:1023E000FAEF11F0000E2C6E000E2D6E000E2E6E08
:1023F000000E2F6E2E8E000E2F6E07EF12F0000EC5
:102400002C6E000E2D6E000E2E6E000E2F6E2C50B8
:102410002D102E102F10D8A410EF12F012EF12F082
:102420002AEF12F0000E286E000E296E000E2A6EA2
:10243000000E2B6E800E2A127F0E2B1238502B129C
:1024400028C028F029C029F02AC02AF02BC02BF080
:102450006DEF13F03F50D8A430EF12F032EF12F0CE
:102460003CEF12F0000E286E000E296E000E2A6E50
:10247000000E2B6E6DEF13F040503FC030F0316A0C
:10248000305E000E315A7F0E3024396E000E31203E
:102490003A6E28C034F029C035F02AC036F02BC07F
:1024A00037F0000E286E000E296E000E2A6E000E08
:1024B0002B6E000E3B6E000E3C6E000E3D6E000E4D
:1024C0003E6E000E406E9DEF12F04050D8B46BEFA0
:1024D00012F06DEF12F084EF12F0D89034363536EA
:1024E00036363736D890283629362A362B363EAE41
:1024F0007CEF12F07EEF12F07FEF12F02880D89080
:102500003B363C363D363E362C50345C2D503558EB
:102510002E5036582F503758D8A091EF12F093EF25
:1025200012F09CEF12F03E8C2C50345E2D50355A38
:102530002E50365A2F50375A402A190E4064A3EFB6
:1025400012F0A5EF12F065EF12F03450351036108E
:102550003710D8B4AEEF12F0B0EF12F0C8EF12F0AF
:102560003B80C8EF12F0D890283629362A362B3611
:102570003EAEBDEF12F0BFEF12F0C0EF12F02880B8
:10258000D8903B363C363D363E363906D8A03A0622
:102590002AAECDEF12F0CFEF12F0B3EF12F0000E33
:1025A000406E3EAED6EF12F0D8EF12F0FCEF12F014
:1025B000FF0E3B14306EFF0E3C14316EFF0E3D14C7
:1025C000326E7F0E3E14336E3050311032103310A5
:1025D000D8B4EDEF12F0EFEF12F0F3EF12F0010EBE
:1025E000406EFCEF12F028A0F8EF12F0FAEF12F0B4
:1025F000FCEF12F0EFEF12F04050D8B402EF13F0FE
:1026000004EF13F028EF13F0010E2826000E292204
:102610002A222B222BA00FEF13F011EF13F028EF3B
:1026200013F028C030F029C031F02AC032F02BC09E
:1026300033F03334333232323132303230C028F07A
:1026400031C029F032C02AF033C02BF0394A3A2A7F
:102650003ABE33EF13F03A5008E13928D8A033EFEF
:1026600013F035EF13F040EF13F0000E3A6E3968B7
:10267000000E286E000E296E000E2A6E000E2B6EC4
:102680003ABE4DEF13F03A5006E13904D8B04BEFA3
:1026900013F04DEF13F05BEF13F0000E3A6E000EE7
:1026A000396E000E286E000E296E000E2A6E000E86
:1026B0002B6E000E386E39C03FF03FA062EF13F072
:1026C00064EF13F067EF13F02A8E68EF13F02A9E81
:1026D000D8903F302B6E1EEF12F01200D3C051F095
:1026E000D4C052F0D5C053F0D6C054F041C051F020
:1026F00042C052F043C053F044C054F0810E456EC6
:10270000FF0E466E51C047F052C048F053C049F02A
:1027100054C04AF0180E92EF13F0D8904A32493262
:1027200048324732E82E8DEF13F0475045244F6E64
:10273000000E4620506E50BEA7EF13F0505009E136
:10274000170E4F5CD8A0A7EF13F0A9EF13F0B3EF6B
:1027500013F041C041F042C042F043C043F044C0D6
:1027600044F076EF14F050BEB8EF13F0BAEF13F068
:102770002AEF14F04FC045F0FF0E466EFF0E476E75
:102780007F0E486E000E496E4566C9EF13F0D1EF1B
:1027900013F049344932483247324632452EC4EFAD
:1027A00013F046C04BF047C04CF048C04DF049C054
:1027B0004EF04B505114456E4C505214466E4D50D5
:1027C0005314476E4E505414486E455046104710EF
:1027D0004810D8A4EEEF13F0F0EF13F0F2EF13F07F
:1027E000A9EF13F051C045F052C046F053C047F076
:1027F00054C048F0200E02EF14F0D890483247320F
:1028000046324532E82EFDEF13F045504610471092
:102810004810D8B40EEF14F010EF14F018EF14F0C5
:102820004B5051264C5052224D5053224E50542260
:102830004B1C456E4C1C466E4D1C476E4E1C486E24
:10284000455051164650521647505316485054168C
:102850006EEF14F051C045F052C046F053C047F03F
:1028600054C048F0200E3AEF14F0D8904832473266
:1028700046324532E82E35EF14F0455046104710E9
:102880004810D8A446EF14F048EF14F052EF14F0BB
:10289000000E516E000E526E000E536E000E546EFE
:1028A0006EEF14F0D8905134456E5234466E533466
:1028B000476E5434486E4550461047104810D8B4FF
:1028C00064EF14F066EF14F06EEF14F0000E516E2A
:1028D000000E526E800E536EBF0E546E51C041F00A
:1028E00052C042F053C043F054C044F01200000103
:1028F000E4BF7DEF14F07FEF14F080EF14F0E59368
:10290000E4BF8DEF14F0E45106E1E305D8B08BEF9E
:1029100014F08DEF14F093EF14F0000E2F6E010EF3
:102920002E6E97EF14F0E3C02EF0E4C02FF0E1C05C
:1029300030F0E2C031F01EC032F01FC033F020C0D2
:1029400034F021C035F022C036F023C037F024C067
:1029500038F025C039F0000E3B6E4F0E3A6E000E77
:1029600001014F6F2AEF15F03A06D8A03B06000E82
:102970003A24D96E010E3B20DA6E32C001F033C02A
:1029800002F034C003F035C004F036C005F037C0A3
:1029900006F038C007F039C008F00A0E096E000EC4
:1029A0000A6E000E0B6E000E0C6E000E0D6E000E09
:1029B0000E6E000E0F6E000E106E96EC1AF001C037
:1029C00026F002C027F003C028F004C029F005C09B
:1029D0002AF006C02BF007C02CF008C02DF02650BE
:1029E000300FDF6E2E06D8A02F063006D8A0310695
:1029F00032C001F033C002F034C003F035C004F03F
:102A000036C005F037C006F038C007F039C008F00E
:102A10000A0E096E000E0A6E000E0B6E000E0C6E92
:102A2000000E0D6E000E0E6E000E0F6E000E106E7C
:102A30004AEC19F001C032F002C033F003C034F0A8
:102A400004C035F005C036F006C037F007C038F0D6
:102A500008C039F03A503B10D8B431EF15F033EFDD
:102A600015F064EF15F03250331034103510361075
:102A7000371038103910D8A440EF15F042EF15F098
:102A8000B4EF14F02FBE4FEF15F02F5006E12E04D7
:102A9000D8B04DEF15F04FEF15F0B4EF14F031BE94
:102AA0005AEF15F0315008E13004D8A05AEF15F074
:102AB0005CEF15F064EF15F00001E5B362EF15F07F
:102AC00064EF15F0B4EF14F01CC011F01DC012F04B
:102AD000000E3A24136E010E3B20146E30C015F028
:102AE00031C016F063EC1BF011C01CF012C01DF0D9
:102AF0001200096E0950D8B480EF15F082EF15F07E
:102B0000A4EF15F004BE89EF15F087EF15F0A4EFE0
:102B100015F001C005F002C006F003C007F004C0C4
:102B200008F0051E061E071E081E052A000E0622B6
:102B30000722082205C00BF006C00CF007C00DF0FC
:102B400008C00EF0ACEF15F001C00BF002C00CF0A5
:102B500003C00DF004C00EF0015002100310041069
:102B6000D8A4B5EF15F0B7EF15F0C1EF15F0000ED2
:102B7000016E000E026E000E036E000E046E52EF28
:102B800016F0960E0A6ECBEF15F00A2AD8900E3288
:102B90000D320C320B32000E0B14056E000E0C14AD
:102BA000066E000E0D14076EFE0E0E14086E055014
:102BB000061007100810D8A4E0EF15F0E2EF15F0AA
:102BC000C5EF15F0F0EF15F00A2A010E0B26000EE6
:102BD0000C220D220E22D8900E320D320C320B3206
:102BE000000E0B14056E000E0C14066E000E0D1474
:102BF000076EFF0E0E14086E055006100710081021
:102C0000D8A405EF16F007EF16F0E4EF15F00FEF7C
:102C100016F00A06D8900B360C360D360E360DBE61
:102C200014EF16F016EF16F01EEF16F0020E0A6003
:102C30001CEF16F01EEF16F009EF16F00AB023EFA6
:102C400016F025EF16F026EF16F00D9ED8900A32FA
:102C50000AC005F0066A076A086A05C008F0076A34
:102C6000066A056A05500B1206500C1207500D1229
:102C700008500E120950D8B440EF16F042EF16F08B
:102C80004AEF16F004BE49EF16F047EF16F04AEF90
:102C900016F00E8E0BC001F00CC002F00DC003F058
:102CA0000EC004F01200000E166E000E156E000E1F
:102CB0000F6E000E0E6E5FEF16F0084A092A010E25
:102CC000146E08C0F6FF09C0F7FF0800F550200A8F
:102CD000D8B46DEF16F06FEF16F08CEF16F0F70E1C
:102CE0000A6EFF0E0B6E08C0F6FF09C0F7FF080062
:102CF000F5500C6E0D6A0A500C260B500D220D502B
:102D000009E1050E0C5CD8A088EF16F08AEF16F0EA
:102D10008CEF16F0000E146E14C010F0116A1050F3
:102D20001110D8A496EF16F098EF16F05DEF16F09C
:102D3000A2EF16F0000E0F6E010E0E6E084A092A61
:102D4000D7EF16F008C0F6FF09C0F7FF0800F550EE
:102D50000A6E0B6A0B50000AD8B4B1EF16F0D7EF29
:102D600016F00A502B0AD8B49EEF16F0060AD8B413
:102D70009AEF16F0D7EF16F015C001F016C002F06A
:102D8000000E046E0A0E036E3BEC1FF008C0F6FF47
:102D900009C0F7FF0800F550015E000E025A300E20
:102DA0000124156E000E0220166E9EEF16F0D00E56
:102DB0000A6EFF0E0B6E08C0F6FF09C0F7FF080091
:102DC000F5500C6E0D6A0A500C260B500D220D505A
:102DD0000AE10A0E0C5CD8A0F0EF16F0F3EF16F043
:102DE000010EF4EF16F0000E126E136A125013105B
:102DF000D8A4FDEF16F0FFEF16F0BCEF16F00E5062
:102E00000F10D8A406EF17F008EF17F016EF17F021
:102E100015C00AF016C00BF00A1E0B1E0A4A0B2A38
:102E20000AC008F00BC009F01AEF17F015C008F03F
:102E300016C009F012000E0E6FEC1FF0D5EC1CF05E
:102E400093908A90000E4DEC1EF001C0E7F002C096
:102E5000E8F0000E136E000E146EA00E156E400EFC
:102E6000166EE7C001F0E8C002F0000E02BEFF0ED1
:102E7000036E046E010E79EC15F001C00FF002C074
:102E800010F003C011F004C012F08CEC0FF00FC072
:102E900028F010C029F011C02AF012C02BF0000E4B
:102EA0002C6EC00E2D6E7F0E2E6E440E2F6EA1EC7A
:102EB00011F028C0DBF029C0DCF02AC0DDF02BC007
:102EC000DEF0010E046E010E2DEC1AF0E90E000189
:102ED000C16F000EC26F100EC36F080EC46FE7C043
:102EE000C5F0E8C0C6F0D8EC1DF0E90E056E000E86
:102EF000066E92EC1EF0010E046E020E2DEC1AF01E
:102F0000E90E0001C16F000EC26F010EC36F080E03
:102F1000C46FDBC0C5F0DCC0C6F0DDC0C7F0DEC0EA
:102F2000C8F0D8EC1DF0E90E056E000E066E92ECAE
:102F30001EF0660E286E660E296E860E2A6E400EF4
:102F40002B6EDBC02CF0DCC02DF0DDC02EF0DEC01F
:102F50002FF049EC18F0D8B0B0EF17F0B2EF17F03F
:102F6000B5EF17F08A80B6EF17F08A900A0E0001CD
:102F7000D26F220ED16FA10EE82EFED7D12FFCD733
:102F8000D22FFAD722EF17F000EF00F00334043409
:102F90000A6E0A50D8A4CFEF17F0D1EF17F0DBEF8D
:102FA00017F0000E016E000E026E000E036E000E92
:102FB000046E48EF18F001C005F002C006F003C02F
:102FC00007F004C008F0200EEBEF17F0D89008329D
:102FD000073206320532E82EE6EF17F00550096E8B
:102FE000038EFF0E0116FF0E0216FF0E0316000ED3
:102FF0000416960E0A5E0ABE02EF18F000EF18F0F3
:1030000018EF18F00A50800A970FD8B00AEF18F09E
:103010000CEF18F00EEF18F0D1EF17F0D890043243
:103020000332023201320A3E0EEF18F030EF18F090
:103030001F0E0A641EEF18F020EF18F028EF18F0AA
:10304000D1EF17F0D89001360236033604360A065F
:103050000A50D8A42EEF18F030EF18F022EF18F035
:103060000950D8B436EF18F038EF18F040EF18F0E8
:10307000041E031E021E016C000E02220322042203
:1030800001C001F002C002F003C003F004C004F06C
:103090001200000E2814306E000E2914316E800EBE
:1030A0002A14326E7F0E2B14336E305031103210D2
:1030B0003310D8A45EEF18F060EF18F068EF18F046
:1030C000000E286E000E296E000E2A6E000E2B6E6A
:1030D000000E2C14306E000E2D14316E800E2E1446
:1030E000326E7F0E2F14336E305031103210331089
:1030F000D8A47DEF18F07FEF18F087EF18F0000EDE
:103100002C6E000E2D6E000E2E6E000E2F6E2BAE4E
:103110008CEF18F08EEF18F097EF18F0286C291E3E
:10312000D8B0292A2A1ED8B02A2A800E2B562FAEB4
:103130009CEF18F09EEF18F0A7EF18F02C6C2D1EE6
:10314000D8B02D2A2E1ED8B02E2A800E2F56000E53
:10315000281A000E291A000E2A1A800E2B1A000EA9
:103160002C1A000E2D1A000E2E1A800E2F1A2C501B
:10317000285C2D5029582E502A582F502B58D8B043
:10318000C4EF18F0C6EF18F0C9EF18F0D890CAEFE6
:1031900018F0D8801200D7C00BF0D8C00CF0D9C0FE
:1031A0000DF0DAC00EF001C00BF002C00CF003C04D
:1031B0000DF004C00EF00BC005F00CC006F00DC001
:1031C00007F00EC008F0180EEBEF18F0D890083298
:1031D000073206320532E82EE6EF18F00550096E88
:1031E0000A6A09500A10D8A4F8EF18F0FAEF18F09C
:1031F0001AEF19F0D8900B34056E0C34066E0D34AE
:10320000076E0E34086E0550061007100810D8A47B
:103210000CEF19F00EEF19F014EF19F0000E026E1A
:10322000020E016E49EF19F0000E026E030E016EE0
:1032300049EF19F009280A10D8A421EF19F023EF5B
:1032400019F045EF19F00BC005F00CC006F00DC0E9
:1032500007F00EC008F0090ED8900536063607367E
:103260000836E82E2CEF19F005500610071008104C
:10327000D8B43DEF19F040EF19F0010E41EF19F00D
:10328000000E016E026A49EF19F0000E026E040E84
:10329000016E120020EE11F0070EDE6AE806FDE274
:1032A00009500A100B100C100D100E100F101010FA
:1032B000D8B45DEF19F05FEF19F0B1EF19F0010E1E
:1032C000196E6DEF19F0D89009360A360B360C36A8
:1032D0000D360E360F361036192A10AE72EF19F071
:1032E00074EF19F063EF19F0D890113612361336D7
:1032F000143615361636173618360950015C0A5042
:1033000002580B5003580C5004580D5005580E50DD
:1033100006580F50075810500858D8A092EF19F0CF
:1033200094EF19F0A5EF19F00950015E0A50025A06
:103330000B50035A0C50045A0D50055A0E50065AA1
:103340000F50075A1050085A1180D89010320F327F
:103350000E320D320C320B320A320932192E74EF52
:1033600019F011C001F012C002F013C003F014C034
:1033700004F015C005F016C006F017C007F018C01D
:1033800008F0120001C008F002C009F003C00AF002
:1033900004C00BF00506D8A00606052806E106289D
:1033A000D8A4D5EF19F0D7EF19F0E4EF19F0000E1B
:1033B000026E000E016E2CEF1AF0084A092A0A4A22
:1033C0000B2A0506D8A0060608C0D9FF09C0DAFFF7
:1033D000DF50D8B4EEEF19F0F0EF19F01BEF1AF050
:1033E0000AC0F6FF0BC0F7FF0800F5500009D8B47B
:1033F000FCEF19F0FEEF19F01BEF1AF00550061064
:10340000D8B405EF1AF007EF1AF01BEF1AF008C056
:10341000D9FF09C0DAFFDF50076E0AC0F6FF0BC004
:10342000F7FF0800F5500718D8B419EF1AF01BEF92
:103430001AF0DDEF19F008C0D9FF09C0DAFFDF503C
:10344000076E0AC0F6FF0BC0F7FF0800F550075CD7
:10345000016E026AD8A002061200056E0504D8A407
:1034600034EF1AF036EF1AF047EF1AF004507F0FDE
:10347000086E08380F0B066E08500F0B076E0650CB
:103480005FEC1FF007505FEC1FF095EF1AF0020E93
:103490000518D8A44EEF1AF050EF1AF061EF1AF0A9
:1034A0000450BF0F086E08380F0B066E08500F0B44
:1034B000076E06505FEC1FF007505FEC1FF095EFB2
:1034C0001AF0030E0518D8A468EF1AF06AEF1AF084
:1034D0007BEF1AF00450930F086E08380F0B066E3E
:1034E00008500F0B076E06505FEC1FF007505FECA3
:1034F0001FF095EF1AF0040E0518D8A482EF1AF009
:1035000084EF1AF095EF1AF00450D30F086E0838C4
:103510000F0B066E08500F0B076E06505FEC1FF086
:1035200007505FEC1FF095EF1AF0120009500A10D7
:103530000B100C100D100E100F101010D8B4A3EFBC
:103540001AF0A5EF1AF0EDEF1AF0010E116EB3EFBD
:103550001AF0D89009360A360B360C360D360E3670
:103560000F361036112A10AEB8EF1AF0BAEF1AF073
:10357000A9EF1AF00950015C0A5002580B50035889
:103580000C5004580D5005580E5006580F5007584F
:1035900010500858D8A0CFEF1AF0D1EF1AF0E1EF91
:1035A0001AF00950015E0A50025A0B50035A0C508F
:1035B000045A0D50055A0E50065A0F50075A105013
:1035C000085AD89010320F320E320D320C320B32B4
:1035D0000A320932112EBAEF1AF001C001F002C00E
:1035E00002F003C003F004C004F005C005F006C0FB
:1035F00006F007C007F008C008F0120003500410DE
:10360000D8B405EF1BF007EF1BF010EF1BF00350D1
:103610000410D8A40EEF1BF010EF1BF015EF1BF0F9
:1036200001507EEC1FF062EF1BF020EE04F003501F
:10363000D9260450DA22DE50DE10D8B422EF1BF077
:1036400024EF1BF03FEF1BF020EE04F00350D926CF
:103650000450DA2210EE02F00350E1260450E22278
:10366000DE50E65CE650800A096EDE50800A09589A
:10367000D8B03DEF1BF03FEF1BF062EF1BF020EEE8
:1036800002F00350D9260450DA22DECF05F0DDCF58
:1036900006F003C0D9FF04C0DAFFDECF07F0DDCFAC
:1036A00008F005500724D96E06500820DA6E01C0D4
:1036B000DFFF20EE02F00350D9260450DA22DE2A82
:1036C000000EDD2212000001E5A169EF1BF06BEF97
:1036D0001BF075EF1BF013C00AF014C00BF011C003
:1036E0000CF012C00DF070EC1EF016BE7AEF1BF05D
:1036F0007CEF1BF082EF1BF015C01AF016C01BF018
:1037000086EF1BF0000E1B6E000E1A6E000E196E77
:10371000000E186E98EF1BF0000E026E200E016E68
:1037200011C003F012C004F0FEEC1AF0184A192A76
:103730001A50185C1950800A176E1B50800A1758CF
:10374000D8A0A5EF1BF0A7EF1BF08CEF1BF000013A
:10375000E5B1ADEF1BF0AFEF1BF0B9EF1BF013C0FD
:103760000AF014C00BF011C00CF012C00DF070EC98
:103770001EF013C001F014C002F006EC1FF01A5046
:103780000124116E1B500220126E1200000E066EF4
:1037900004BECFEF1BF0CDEF1BF0D5EF1BF0036C99
:1037A000041ED8B0042A010E066E02BEDCEF1BF028
:1037B000DAEF1BF0E2EF1BF0016C021ED8B0022A18
:1037C000010E061A000E086E000E076E035004105C
:1037D000D8B4EDEF1BF0EFEF1BF017EF1CF0010E6C
:1037E000056EF7EF1BF0D89003360436052A04AEB9
:1037F000FCEF1BF0FEEF1BF0F3EF1BF0D890073649
:1038000008360350015C04500258D8A00AEF1CF09F
:103810000CEF1CF011EF1CF00350015E0450025A33
:103820000780D89004320332052EFEEF1BF00650BD
:10383000D8B41DEF1CF01FEF1CF023EF1CF0076C39
:10384000081ED8B0082A07C001F008C002F0120014
:10385000000E066E02BE31EF1CF02FEF1CF037EFAA
:103860001CF0016C021ED8B0022A010E066E04BEC6
:103870003EEF1CF03CEF1CF042EF1CF0036C041E0A
:10388000D8B0042A03500410D8B449EF1CF04BEF11
:103890001CF06FEF1CF0010E056E53EF1CF0D8907A
:1038A00003360436052A04AE58EF1CF05AEF1CF01C
:1038B0004FEF1CF00350015C04500258D8A063EF96
:1038C0001CF065EF1CF069EF1CF00350015E045022
:1038D000025AD89004320332052E5AEF1CF00650DB
:1038E000D8B475EF1CF077EF1CF07BEF1CF0016C87
:1038F000021ED8B0022A01C001F002C002F012007C
:10390000000E0114096E000E02140A6E800E0314DC
:103910000B6E7F0E04140C6E09500A100B100C1065
:10392000D8A495EF1CF097EF1CF09FEF1CF0000E51
:10393000016E000E026E000E036E000E046E000E8D
:103940000514096E000E06140A6E800E07140B6E25
:103950007F0E08140C6E09500A100B100C10D8A41E
:10396000B4EF1CF0B6EF1CF0BEEF1CF0000E056EBD
:10397000000E066E000E076E000E086E0550011850
:103980000FE1065002180CE10750031809E1085036
:103990000418D8B4CEEF1CF0D0EF1CF0D3EF1CF01D
:1039A000D890D4EF1CF0D8801200959495969598F5
:1039B000959A959C959E000EAAEC1DF0020E056E40
:1039C000380E046EAD0EE82EFED7042EFCD7052E61
:1039D000FAD700F0030E5FEC1FF04E0E046EEB0EF4
:1039E000E82EFED7042EFCD700F0030E5FEC1FF08C
:1039F000AC0E046E6C0EE82EFED7042EFCD700D061
:103A0000030E5FEC1FF0020E5FEC1FF0020E5FEC86
:103A10001FF0080E5FEC1FF0000E5FEC1FF00C0EA5
:103A20005FEC1FF0000E5FEC1FF0060E5FEC1FF066
:103A300077EC1FF01200BBC0BFF0BCC0C0F0000E9E
:103A40000001E06F000EDF6F39EF1DF0B9C09DF08F
:103A5000BAC09EF0BF0E9F6F000EA06FBDC0A1F058
:103A6000BEC0A2F044EC0AF000019D51DF279E5138
:103A7000E023BFC0F6FFC0C0F7FF0800F550000903
:103A8000D8A445EF1DF047EF1DF026EF1DF0DFC075
:103A9000B9F0E0C0BAF01200BF0E096EFF0E0A6E58
:103AA00007C00BF008C00CF009500B260A500C227E
:103AB0000C500AE11A0E0B5CD8A061EF1DF064EF08
:103AC0001DF0010E65EF1DF0000E0D6E0E6A0D501B
:103AD0000E10D8B46EEF1DF070EF1DF077EF1DF0F3
:103AE000200E0710076E0850086E7BEF1DF007C010
:103AF00007F008C008F0120003C007F004C008F087
:103B000001C009F002C00AF00750056E0850066EA9
:103B1000074A082A05C0F6FF06C0F7FFF86A09C081
:103B2000D9FF0AC0DAFF094A0A2A070EF76403D050
:103B30000800F55005D0F6CFE1FFF7CFE2FFE750E0
:103B4000DF6EDF50D8A4A7EF1DF0A9EF1DF084EFC2
:103B50001DF01200016E01A0B0EF1DF0B2EF1DF0DC
:103B6000B5EF1DF08C88B6EF1DF08C9801A2BBEF6D
:103B70001DF0BDEF1DF0C0EF1DF08C8AC1EF1DF0F0
:103B80008C9A01A4C6EF1DF0C8EF1DF0CBEF1DF01D
:103B90008C8CCCEF1DF08C9C01A6D1EF1DF0D3EFE7
:103BA0001DF0D6EF1DF08C8ED7EF1DF08C9E12000D
:103BB000C50E0001C96F000ECA6FC1C0CBF0C2C0F4
:103BC000CCF0000ECE6F000ECD6F000ED06F000E49
:103BD000CF6FCB0EB96F000EBA6FC3C0BBF0C4C0BD
:103BE000BCF0C90EBD6F000EBE6F1BEC1DF00001D6
:103BF000CD51C125D96ECE51C221DA6E000EDF6ED5
:103C00001200010E076E200E01180210D8B40BEF3F
:103C10001EF00DEF1EF026EF1EF0F70E036EFF0EE6
:103C2000046E01C005F002C006F0035005260450E2
:103C30000622065009E1050E055CD8A022EF1EF011
:103C400024EF1EF026EF1EF0000E076E07C001F0F5
:103C5000026A1200000E2C1A000E2D1A000E2E1AE7
:103C6000800E2F1A28C001F029C002F02AC003F0EC
:103C70002BC004F02CC005F02DC006F02EC007F0BC
:103C80002FC008F02CEC0DF001C028F002C029F084
:103C900003C02AF004C02BF01200036E0D0E036463
:103CA00054EF1EF056EF1EF05CEF1EF0000E026E99
:103CB000000E016E6FEF1EF0000EC26E0344E84668
:103CC000FC0BC26EC280C282C2B269EF1EF06BEF03
:103CD0001EF064EF1EF0C3CF01F0C4CF02F012005B
:103CE000000E106E000E0F6E81EF1EF00EC001F080
:103CF000026A0CC003F00DC004F0FEEC1AF00F4A8B
:103D0000102A0F500A24D96E10500B20DA6EDF50A3
:103D10000E6E0E50D8A48FEF1EF091EF1EF076EFCE
:103D20001EF01200000E086E000E076EA3EF1EF0CC
:103D300007500524D96E08500620DA6EDF5021ECBA
:103D40001FF0074A082A07500524D96E085006209C
:103D5000DA6EDF50D8A4AFEF1EF0B1EF1EF098EF8F
:103D60001EF01200BF0E036EFF0E046E01C005F0C0
:103D700002C006F0035005260450062206500AE150
:103D80001A0E055CD8A0C7EF1EF0CAEF1EF0010E98
:103D9000CBEF1EF0000E016E026A120001500210FD
:103DA00003100410D8B4D7EF1EF0D9EF1EF0E1EFE6
:103DB0001EF0000E011A000E021A000E031A800EE9
:103DC000041A01C001F002C002F003C003F004C0F5
:103DD00004F01200D00E036EFF0E046E01C005F059
:103DE00002C006F0035005260450062206500AE1E0
:103DF0000A0E055CD8A0FFEF1EF002EF1FF0010EC7
:103E000003EF1FF0000E016E026A120001C003F002
:103E100002C004F00EEF1FF0014A022A01C0D9FFD0
:103E200002C0DAFFDF50D8A418EF1FF01AEF1FF01E
:103E30000CEF1FF00350015C016E04500258026E3B
:103E40001200046E04500F0B026E0450F00B036E50
:103E50008C8403380F0BAAEC1DF08C86A00EE82E84
:103E6000FED78C960250AAEC1DF08C86A00EE82E90
:103E7000FED78C96120001500302F3CF05F0F4CF69
:103E800006F001500402F350062602500302F350DC
:103E9000062605C001F006C002F0120001EE00F097
:103EA000500EEE6AE806FDE100EED3F02A0EEE6A4F
:103EB000E806FDE1000EF86E00011BEF17F0036E3F
:103EC0008C940350AAEC1DF08C863F0E026E550EAA
:103ED000E82EFED7022EFCD700F08C961200016E61
:103EE00001C0C1FF000EC26E8F0EC06E1200000E28
:0E3EF0005FEC1FF0010E5FEC1FF012001200DD
:020000040020DA
:08000000FFFFFFFFFFFFFFFF00
:020000040030CA
:0E000000210E191EFF8181FF0FC00FE00F407F
:00000001FF
