:040000004CEF04F0CD
:10080000000038EC04F020EE13F010EE07F00B0EB1
:10081000DBCFE3FFE806FCE2070E026E20EC04F0FB
:100820001A0E066E5E0E056E6E0EE82EFED7052EB3
:10083000FCD7062EFAD700D00CEF04F000EF00F042
:10084000000E046E000E036E2FEF04F0025003241E
:10085000D96EDA6ADF505FEC04F0034A042A0250D2
:10086000D8A435EF04F037EF04F026EF04F01200BF
:10087000AB8E948E949CAC9CAC8AAC98AC96AC94A9
:10088000AC82AB8EAB9CAB88AB96AB94AB92B89E74
:10089000B8860A0EAF6E1200DC0EF66E080EF76E0A
:1008A000000EF86E00EE13F010EE0CF00900F5CF1C
:1008B000EEFFE550E150FAE1000101EF04F0016EB6
:1008C000AC98AB8EAC8AAC8AACA269EF04F06BEF4B
:1008D00004F064EF04F001C0ADFF1200486F6C61DA
:0808E000204D756E646F0A00E3
:020000040020DA
:08000000FFFFFFFFFFFFFFFF00
:020000040030CA
:0E000000000C1F1EFF0185FF0FC00FE00F4018
:00000001FF
