:04000000AAEF04F06F
:1008000000009280928292849286C30EC216100ECD
:10081000E82EFED700D0000E75EC04F00EC001F0FB
:100820000FC002F0C250C30B0409C26E100EE82EB6
:10083000FED700D0010E75EC04F00EC003F00FC01F
:1008400004F0C250C30B0809C26E100EE82EFED78A
:1008500000D0020E75EC04F00EC005F00FC006F0DB
:10086000C250C30B0C09C26E100EE82EFED700D08A
:10087000030E75EC04F00EC007F00FC008F0120074
:10088000030E946E8250030B0D6E57EF04F001C0FF
:1008900083FF74EF04F003C083FF74EF04F005C01E
:1008A00083FF74EF04F007C083FF74EF04F00D5072
:1008B0000E6E0F6A0F50000AD8B461EF04F074EFA7
:1008C00004F00E50000AD8B447EF04F0010AD8B47F
:1008D0004BEF04F0030AD8B44FEF04F0010AD8B488
:1008E00053EF04F074EF04F01200106E0D0E10645C
:1008F0007CEF04F07EEF04F084EF04F0000E0F6E46
:10090000000E0E6E8FEF04F0C282C2B28AEF04F0C6
:100910008CEF04F085EF04F0C4CF0EF00F6A1200E4
:10092000B5EC04F0000E896E000E806E0F0E921270
:10093000000E8B6E000E826E000E836E000E8C6EAB
:10094000000E956E01EC04F040EC04F0A2EF04F010
:1009500000EF00F000EE01F00D0EEE6AE806FDE19A
:10096000000EF86E000190EF04F0000EC26E0A0E49
:0A097000C16E170EC06EC2801200A7
:020000040020DA
:08000000FFFFFFFFFFFFFFFF00
:020000040030CA
:0E000000000C1F1EFF8385FF0FC00FE00F4096
:00000001FF
